S01000006C616234707261792E73726563F5
S11300000C9437000C9430070C949F070C940E0842
S11300100C947D080C94EC080C9454000C94570F29
S11300200C9454000C94050F0C945B090C94CA09AD
S11300300C94390A0C94A80A0C94170B0C94860B94
S11300400C94F50B0C94640C0C94D30C0C94420D8E
S11300500C94B10D0C94200E0C948F0EB5009D00E1
S1130060A000A300A600A900AC00AF00B2001124B8
S11300701FBECFEFD4E0DEBFCDBF11E0A0E0B1E002
S1130080E6E2F5E202C005900D92AC34B107D9F76F
S113009024E0ACE4B1E001C01D92A33AB207E1F759
S11300A00E941F040C9491120C940000E1E6F0E00D
S11300B080E88083108287EB8093E5008FE0809353
S11300C0E70087E08093E60090EC9093E40085B12C
S11300D0806D85B98EB18C608EB98FE284B980E56C
S11300E08DB98CE080936B0080ED80936C009DBB98
S11300F00895CF93DF93CDB7DEB764970FB6F89426
S1130100DEBF0FBECDBF94E1E7E3F1E0DE0111965F
S113011001900D929A95E1F76630710508F09EC141
S113012090E0FC01F197E930F10520F4E25DFF4F26
S11301300C94201280E090E01AC082E090E017C096
S113014083E090E014C084E090E011C085E090E08A
S11301500EC086E090E00BC087E090E008C088E025
S113016090E005C089E090E002C081E090E0623058
S1130170710509F48AC044F46115710581F0613098
S1130180710509F445C06AC16430710509F4F2C00F
S11301900CF4B3C06530710509F424C15FC1ACEE41
S11301A0B0E02C91880F991FE1E0F0E0EC0FFD1F07
S11301B0E80FF91F9081207F892F8F70822B846034
S11301C08C93A1EFB0E02C9180819181807F99275D
S11301D09595879595958795959587959595879503
S11301E0922F907F892B8C93A6EFB0E08C91208185
S11301F0318122273F70807F832B8C93ABEFB0E05B
S11302008C91918192959F70807F892B8C9326C1CC
S1130210ACEEB0E02C91880F991FE1E0F0E0EC0F18
S1130220FD1FE80FF91F8081918182959295907F3F
S11302309827807F9827922F9F70892B8C93A1EF0A
S1130240B0E09C9180819F70807F892B8C93A6EF76
S1130250B0E02C918081918188279F709595879536
S1130260959587959595879595958795922F9F70E8
S1130270892B8C93ABEFB0E08C91208131812227C4
S1130280307F8F70832B8C93E9C0ADEEB0E02C915E
S1130290880F991FE1E0F0E0EC0FFD1FE80FF91F54
S11302A08081922F907F8F70892B8C93A2EFB0E086
S11302B02C9180819181807F99279595879595953B
S11302C087959595879595958795922F907F892BFE
S11302D08C93A7EFB0E08C912081318122273F706D
S11302E0807F832B8C93ACEFB0E08C9191819295BD
S11302F09F70807F892B8C93B1C0ADEEB0E02C91C0
S1130300880F991FE1E0F0E0EC0FFD1FE80FF91FE3
S11303108081918182959295907F9827807F9827FC
S1130320922F9F70892B8C93A2EFB0E09C918081D7
S11303309F70807F892B8C93A7EFB0E02C918081F4
S1130340918188279F709595879595958795959523
S1130350879595958795922F9F70892B8C93ACEFF9
S1130360B0E08C91208131812227307F8F70832BE4
S11303708C9374C0AEEEB0E02C91880F991FE1E02D
S1130380F0E0EC0FFD1FE80FF91F8081922F907FA2
S11303908F70892B8C93A3EFB0E02C918081918195
S11303A0807F9927959587959595879595958795B8
S11303B095958795922F907F892B8C93A8EFB0E029
S11303C08C912081318122273F70807F832B8C93F5
S11303D0ADEFB0E08C91918192959F70807F892BD5
S11303E08C933CC0AEEEB0E02C91880F991FE1E0F5
S11303F0F0E0EC0FFD1FE80FF91F808191818295D9
S11304009295907F9827807F9827922F9F70892BB1
S11304108C93A3EFB0E09C9180819F70807F892BA7
S11304208C93A8EFB0E02C918081918188279F70F4
S113043095958795959587959595879595958795A0
S1130440922F9F70892B8C93ADEFB0E08C9120811B
S113045031812227307F8F70832B8C9364960FB663
S1130460F894DEBF0FBECDBFDF91CF9108950F93F7
S11304701F93CF93DF93D62FFC01048110E089E210
S1130480689F812D112482958F70262FF4E68F9F0B
S113049020191124CDEC2C9F812D1124869586954D
S11304A08695B801805D0E947900B8016F5F7F4F27
S11304B0DC9FC12D1124C695C695C695CC0F8C2FF3
S11304C0880F880FC80F8D2F8C1B805D0E947900C8
S11304D0DF91CF911F910F910895FC0184818111C7
S11304E009C0ECEEF0E080818460808380818F7BA2
S11304F080830895843041F4ECEEF0E080818064E0
S1130500808380818B7F8083089521E0FC0126878E
S11305100895CF92DF92EF92FF920F931F93CF93A0
S1130520DF93EC0140E050E066E570E08885998552
S11305300E94001140E050E06BE574E08C819D81E5
S11305400E9400110E811F81C12CD12C0F2EFBE5BE
S1130550EF2EF4E0FF2EF02D20E030E0A90160E062
S113056070E0CB010E94F70F08851985CC24C39451
S1130570D12C0F2EF7E3EF2EF2E0FF2EF02D20E02A
S113058030E0A90160E070E0CB010E94F70F0A851A
S11305901B8520E030E0A90160E070E0CB010E94FF
S11305A0F70F08851985C12CD12C0F2EFDE6EF2EEF
S11305B0F2E0FF2EF02D20E030E0A90160E070E0D1
S11305C0CB010E94F70FDF91CF911F910F91FF9004
S11305D0EF90DF90CF900895CF92DF92EF92FF9249
S11305E00F931F93CF93DF93EC0185B1806185B99D
S11305F01C992FC08E858823D1F0EC85FD85329619
S1130600EE0FFF1FEC0FFD1F00811181C12CD12CB7
S11306100F2EF6E5EF2EF5E0FF2EF02D20E030E072
S1130620A90160E070E0CB010E94F70F1E86C12C87
S1130630D12C0F2EF5E8EF2EF2E0FF2EF02D8E01D7
S113064020E030E0A9016AE678E180E090E00E94D1
S1130650F70F85B1806485B91E9930C08E858823D3
S1130660D9F0EC85FD853296EE0FFF1FEC0FFD1FD0
S113067000811181C12CD12C0F2EF5EDEF2EF4E069
S1130680FF2EF02D20E030E0A90169E07DE380E059
S113069090E00E94F70F1E86C12CD12C0F2EF5E896
S11306A0EF2EF2E0FF2EF02D8E0120E030E0A901C4
S11306B06AE678E180E090E00E94F70F85B18068F7
S11306C085B91F9930C08E858823D9F0EC85FD85C6
S11306D03296EE0FFF1FEC0FFD1F00811181C12C1C
S11306E0D12C0F2EF6E1EF2EF5E0FF2EF02D20E0B9
S11306F030E0A90169E07DE380E090E00E94F70F1B
S11307001E86C12CD12C0F2EF5E8EF2EF2E0FF2E21
S1130710F02D8E0120E030E0A9016AE678E180E066
S113072090E00E94F70FDF91CF911F910F91FF90FE
S1130730EF90DF90CF900895CF92DF92EF92FF92E7
S11307400F931F93CF93DF93EC018EB188608EB922
S1130750639934C08C859D85181619067CF1FC01BB
S11307603496EE0FFF1FEC0FFD1F00811181C12C89
S1130770D12C0F2EFDE6EF2EF2E0FF2EF02D20E01F
S113078030E0A90160E070E0CB010E94F70F8C8596
S11307909D859C012F5F3F4F3D872C87FC0135963B
S11307A0EE0FFF1FEC0FFD1F0081118120E030E0F0
S11307B0A90160E070E0CB010E94F70F8EB1846064
S11307C08EB9629933C08C859D851816190674F507
S11307D0FC013496EE0FFF1FEC0FFD1F0081118109
S11307E0C12CD12C0F2EFDE6EF2EF2E0FF2EF02DC2
S11307F020E030E0A90160E070E0CB010E94F70F37
S11308008C859D859C01215031093D872C87039659
S1130810880F991FC80FD91F0881198120E030E083
S1130820A90160E070E0CB010E94F70FDF91CF9146
S11308301F910F91FF90EF90DF90CF900895E9E121
S1130840F1E08CE491E090878783938B828B2FE097
S113085031E03287218784E191E0958B848BA0E09D
S1130860B1E01596FC93EE93149744E251E0179689
S11308705C934E93169719963C932E9318971B9658
S11308809C938E931A9742E06CEE72E0CD010E9425
S1130890DA1141E06CE973E080E091E00E94DA1142
S11308A040E050E069E872E080E091E00E94F511D8
S11308B080E090E00895CF92DF92EF92FF920F9341
S11308C01F93CF93DF93EC018D81882309F440C0FB
S11308D0CC800F811885D12C0F2EFEE7EF2EF5E08A
S11308E0FF2EF02D20E030E0A90160E070E0CB01A4
S11308F00E94F70F6D8170E0660F771F88EE93E01A
S11309000E940C122DE730E0DB010E9426128B01BD
S11309109C01992324F40D5F1F4F2F4F3F4FC901B2
S1130920B80195958795779567959595879577956A
S11309306795C12CD12C0F2EFBE5EF2EF4E0FF2E92
S1130940F02D8E0120E030E0A9010E94F70F24C0B1
S1130950C12CD12C0F2EFBE5EF2EF4E0FF2EF02D51
S11309608E0120E030E0A90169E07DE380E090E0C1
S11309700E94F70FCC800F811885D12C0F2EF9E837
S1130980EF2EF5E0FF2EF02D20E030E0A90160E02D
S113099070E0CB010E94F70FDF91CF911F910F916F
S11309A0FF90EF90DF90CF900895CF92DF92EF9277
S11309B0FF920F931F93CF93DF93FC01958193369E
S11309C060F5EF019F5F958301851285C92ED12CB7
S11309D00F2EF7E3EF2EF2E0FF2EF02D20E030E0B3
S11309E0A90160E070E0CB010E94F70F85B180643B
S11309F085B91E9912C0C12CD12C0F2EF5EDEF2E06
S1130A00F4E0FF2EF02D8E0120E030E0A9016AE62B
S1130A1078E180E090E00E94F70FDF91CF911F9181
S1130A200F91FF90EF90DF90CF900895CF92DF92D7
S1130A30EF92FF920F931F93CF93DF93FC01C58036
S1130A40CC2059F1EC01CA94C58201851285D12CC0
S1130A500F2EF7E3EF2EF2E0FF2EF02D20E030E032
S1130A60A90160E070E0CB010E94F70F85B18068B6
S1130A7085B91F9912C0C12CD12C0F2EF6E1EF2E8F
S1130A80F5E0FF2EF02D8E0120E030E0A9016AE6AA
S1130A9078E180E090E00E94F70FDF91CF911F9101
S1130AA00F91FF90EF90DF90CF900895CF92DF9257
S1130AB0EF92FF920F931F93FC018581882319F015
S1130AC08683158202C086818583C580018512854F
S1130AD0D12C0F2EF7E3EF2EF2E0FF2EF02D20E0C5
S1130AE030E0A90160E070E0CB010E94F70F1F9194
S1130AF00F91FF90EF90DF90CF9008952EB181E099
S1130B0090E002C0880F991F6A95E2F782278EB998
S1130B1008952EB181E090E002C0880F991F6A9574
S1130B20E2F7809582238EB90895CF93DF9300D0A6
S1130B3000D0CDB7DEB780E090E018C0AC014F5FC5
S1130B405F4F9A0122953295307F3227207F3227DA
S1130B502D5C3D4F82959295907F9827807F9827B2
S1130B60FC01ED5CFD4F31832083CA018E30910579
S1130B702CF3109214031092130380E090E015C03C
S1130B80AC014F5F5F4F6DE1649F9001659F300D35
S1130B90112422583E4F689FF001699FF00D1124E3
S1130BA0E258FE4F31832083CA018330910544F318
S1130BB01092D6011092D5011A82198232C02DE109
S1130BC049815A81249FC001259F900D1124FC0165
S1130BD0EC57FE4FFC83EB83CF010E94501220E6BA
S1130BE049815A81249FC001259F900D1124815869
S1130BF09C4FEB81FC81918B808B938B828B82E861
S1130C0091E1968B858B8DE1849FF001859FF00D9A
S1130C101124E258FE4F158214824F5F5F4F5A83AE
S1130C20498329813A81243031054CF2E6E1F2E02E
S1130C30118210821582148213821282E1E6F0E09E
S1130C4080E880831082109285001092840084E0F2
S1130C508093810081E080936F000F900F900F903C
S1130C600F90DF91CF910895CF93DF9300D0CDB74C
S1130C70DEB79A83898380912F0190913001069683
S1130C800E945012892B59F489819A8190933001E2
S1130C9080932F0161E070E006960E9470120F901D
S1130CA00F90DF91CF9108950F931F93CF93DF930C
S1130CB0DC01CB01EB01E881F981C0E0D0E004C0A4
S1130CC0EF010190F081E02D309779F006811781D2
S1130CD02085318516964D915D916D917C91199782
S1130CE040175107620773075CF71196FC93EE9364
S1130CF0209721F4FC01B183A08302C0B983A883A7
S1130D00DF91CF911F910F9108950F931F93CF936C
S1130D10DF93DC01CB01EB01E881F981C0E0D0E095
S1130D2004C0EF010190F081E02D309779F0028149
S1130D3013812481358112964D915D916D917C9141
S1130D40159740175107620773075CF71196FC93D8
S1130D50EE93209721F4FC01B183A08302C0B983F0
S1130D60A883DF91CF911F910F910895CF93DF93C3
S1130D7000D0CDB7DEB7FC01208131813A832983CD
S1130D8029813A81232B51F0E981FA812081318133
S1130D90FC013183208389819A810BC08FEF80937A
S1130DA0EC008093ED008093EE0081E083BF889592
S1130DB0FCCF0F900F90DF91CF910895FB0120811C
S1130DC03181FC0131832083FB0191838083089569
S1130DD0FB0120813181FC0131832083FB0191835C
S1130DE080830895DC01ED91FC911197208131817C
S1130DF02D933C93CF010895CF93DF93E09131017C
S1130E00F0913201C281D381E0915801F0915901EE
S1130E10309719F18091330190913401892BE9F0D5
S1130E20209769F086819781A085B1854E815F8185
S1130E3068857985841B950BA60BB70B72F483E345
S1130E4091E00E94F20661E371E00E94E80680915D
S1130E503101909132010E943406DF91CF910895BF
S1130E601F920F920FB60F9211240F931F932F937B
S1130E703F934F935F936F937F938F939F93AF931E
S1130E80BF93EF93FF938091500190915101AC0176
S1130E90092E000C660B770B9A011127002740914D
S1130EA084005091850060E070E0402B512B622B50
S1130EB0732B4093520150935301609354017093E8
S1130EC05501B09B1AC00196092E000CAA0BBB0B4E
S1130ED0BC01552744278091840090918500A0E0AF
S1130EE0B0E0842B952BA62BB72B809352019093C3
S1130EF05301A0935401B0935501E091F201F09194
S1130F00F301309739F060E070E080915A019091DC
S1130F105B0109950E94FC06FF91EF91BF91AF918F
S1130F209F918F917F916F915F914F913F912F91FD
S1130F301F910F910F900FBE0F901F9018951F9245
S1130F400F920FB60F9211240F931F932F933F9379
S1130F504F935F936F937F938F939F93AF93BF93BD
S1130F60EF93FF938091500190915101AC01092EB0
S1130F70000C660B770B9A0111270027409184001F
S1130F805091850060E070E0402B512B622B732B55
S1130F90409352015093530160935401709355014F
S1130FA0B09B1AC00196092E000CAA0BBB0BBC0106
S1130FB0552744278091840090918500A0E0B0E0FB
S1130FC0842B952BA62BB72B80935201909353011E
S1130FD0A0935401B0935501E091F401F091F5010F
S1130FE0309739F061E070E080915C0190915D018F
S1130FF009950E94FC06FF91EF91BF91AF919F91DB
S11310008F917F916F915F914F913F912F911F919C
S11310100F910F900FBE0F901F9018951F920F9273
S11310200FB60F9211240F931F932F933F934F9357
S11310305F936F937F938F939F93AF93BF93EF933C
S1131040FF938091500190915101AC01092E000C45
S1131050660B770B9A011127002740918400509169
S1131060850060E070E0402B512B622B732B409382
S11310705201509353016093540170935501B09BF6
S11310801AC00196092E000CAA0BBB0BBC015527F4
S113109044278091840090918500A0E0B0E0842BE7
S11310A0952BA62BB72B8093520190935301A093B9
S11310B05401B0935501E091F601F091F701309796
S11310C039F062E070E080915E0190915F010995D2
S11310D00E94FC06FF91EF91BF91AF919F918F9178
S11310E07F916F915F914F913F912F911F910F913C
S11310F00F900FBE0F901F9018951F920F920FB66E
S11311000F9211240F931F932F933F934F935F9349
S11311106F937F938F939F93AF93BF93EF93FF93BB
S11311208091500190915101AC01092E000C660B85
S1131130770B9A0111270027409184005091850074
S113114060E070E0402B512B622B732B40935201D3
S1131150509353016093540170935501B09B1AC08E
S11311600196092E000CAA0BBB0BBC015527442782
S11311708091840090918500A0E0B0E0842B952BB1
S1131180A62BB72B8093520190935301A093540143
S1131190B0935501E091F801F091F901309739F0DD
S11311A063E070E0809160019091610109950E9473
S11311B0FC06FF91EF91BF91AF919F918F917F9129
S11311C06F915F914F913F912F911F910F910F90CC
S11311D00FBE0F901F9018951F920F920FB60F928B
S11311E011240F931F932F933F934F935F936F9308
S11311F07F938F939F93AF93BF93EF93FF938091CC
S1131200500190915101AC01092E000C660B770B33
S11312109A0111270027409184005091850060E0D5
S113122070E0402B512B622B732B4093520150934F
S113123053016093540170935501B09B1AC00196F9
S1131240092E000CAA0BBB0BBC0155274427809127
S1131250840090918500A0E0B0E0842B952BA62B10
S1131260B72B8093520190935301A0935401B093F0
S11312705501E091FA01F091FB01309739F064E0F7
S113128070E0809162019091630109950E94FC06CF
S1131290FF91EF91BF91AF919F918F917F916F914A
S11312A05F914F913F912F911F910F910F900FBE1E
S11312B00F901F9018951F920F920FB60F92112442
S11312C00F931F932F933F934F935F936F937F934A
S11312D08F939F93AF93BF93EF93FF9380915001AC
S11312E090915101AC01092E000C660B770B9A0109
S11312F011270027409184005091850060E070E040
S1131300402B512B622B732B40935201509353016A
S11313106093540170935501B09B1AC00196092E35
S1131320000CAA0BBB0BBC015527442780918400F9
S113133090918500A0E0B0E0842B952BA62BB72BD1
S11313408093520190935301A0935401B09355019B
S1131350E091FC01F091FD01309739F065E070E017
S1131360809164019091650109950E94FC06FF91AA
S1131370EF91BF91AF919F918F917F916F915F9109
S11313804F913F912F911F910F910F900FBE0F908E
S11313901F9018951F920F920FB60F9211240F935E
S11313A01F932F933F934F935F936F937F938F93E9
S11313B09F93AF93BF93EF93FF93809150019091CC
S11313C05101AC01092E000C660B770B9A01112711
S11313D00027409184005091850060E070E0402B2C
S11313E0512B622B732B4093520150935301609302
S11313F0540170935501B09B1AC00196092E000C3C
S1131400AA0BBB0BBC015527442780918400909103
S11314108500A0E0B0E0842B952BA62BB72B8093FE
S1131420520190935301A0935401B0935501E0915C
S1131430FE01F091FF01309739F066E070E0809191
S113144066019091670109950E94FC06FF91EF9156
S1131450BF91AF919F918F917F916F915F914F91C8
S11314603F912F911F910F910F900FBE0F901F90DE
S113147018951F920F920FB60F9211240F931F937A
S11314802F933F934F935F936F937F938F939F9388
S1131490AF93BF93EF93FF938091500190915101CB
S11314A0AC01092E000C660B770B9A01112700275B
S11314B0409184005091850060E070E0402B512BF6
S11314C0622B732B40935201509353016093540148
S11314D070935501B09B1AC00196092E000CAA0BFB
S11314E0BB0BBC0155274427809184009091850053
S11314F0A0E0B0E0842B952BA62BB72B8093520150
S113150090935301A0935401B0935501E0910002CC
S1131510F0910102309739F067E070E08091680142
S11315209091690109950E94FC06FF91EF91BF918A
S1131530AF919F918F917F916F915F914F913F9167
S11315402F911F910F910F900FBE0F901F90189520
S11315501F920F920FB60F9211240F931F932F9384
S11315603F934F935F936F937F938F939F93AF9327
S1131570BF93EF93FF938091500190915101AC017F
S1131580092E000C660B770B9A0111270027409156
S113159084005091850060E070E0402B512B622B59
S11315A0732B4093520150935301609354017093F1
S11315B05501B09B1AC00196092E000CAA0BBB0B57
S11315C0BC01552744278091840090918500A0E0B8
S11315D0B0E0842B952BA62BB72B809352019093CC
S11315E05301A0935401B0935501E0910202F0918C
S11315F00302309739F068E070E080916A019091BD
S11316006B0109950E94FC06FF91EF91BF91AF9188
S11316109F918F917F916F915F914F913F912F9106
S11316201F910F910F900FBE0F901F9018951F924E
S11316300F920FB60F9211240F931F932F933F9382
S11316404F935F936F937F938F939F93AF93BF93C6
S1131650EF93FF938091500190915101AC01092EB9
S1131660000C660B770B9A01112700274091840028
S11316705091850060E070E0402B512B622B732B5E
S11316804093520150935301609354017093550158
S1131690B09B1AC00196092E000CAA0BBB0BBC010F
S11316A0552744278091840090918500A0E0B0E004
S11316B0842B952BA62BB72B809352019093530127
S11316C0A0935401B0935501E0910402F0910502F6
S11316D0309739F069E070E080916C0190916D0170
S11316E009950E94FC06FF91EF91BF91AF919F91E4
S11316F08F917F916F915F914F913F912F911F91A6
S11317000F910F900FBE0F901F9018951F920F927C
S11317100FB60F9211240F931F932F933F934F9360
S11317205F936F937F938F939F93AF93BF93EF9345
S1131730FF938091500190915101AC01092E000C4E
S1131740660B770B9A011127002740918400509172
S1131750850060E070E0402B512B622B732B40938B
S11317605201509353016093540170935501B09BFF
S11317701AC00196092E000CAA0BBB0BBC015527FD
S113178044278091840090918500A0E0B0E0842BF0
S1131790952BA62BB72B8093520190935301A093C2
S11317A05401B0935501E0910602F091070230977D
S11317B039F06AE070E080916E0190916F010995B3
S11317C00E94FC06FF91EF91BF91AF919F918F9181
S11317D07F916F915F914F913F912F911F910F9145
S11317E00F900FBE0F901F9018951F920F920FB677
S11317F00F9211240F931F932F933F934F935F9353
S11318006F937F938F939F93AF93BF93EF93FF93C4
S11318108091500190915101AC01092E000C660B8E
S1131820770B9A011127002740918400509185007D
S113183060E070E0402B512B622B732B40935201DC
S1131840509353016093540170935501B09B1AC097
S11318500196092E000CAA0BBB0BBC01552744278B
S11318608091840090918500A0E0B0E0842B952BBA
S1131870A62BB72B8093520190935301A09354014C
S1131880B0935501E0910802F0910902309739F0C4
S11318906BE070E0809170019091710109950E9454
S11318A0FC06FF91EF91BF91AF919F918F917F9132
S11318B06F915F914F913F912F911F910F910F90D5
S11318C00FBE0F901F9018951F920F920FB60F9294
S11318D011240F931F932F933F934F935F936F9311
S11318E07F938F939F93AF93BF93EF93FF938091D5
S11318F0500190915101AC01092E000C660B770B3D
S11319009A0111270027409184005091850060E0DE
S113191070E0402B512B622B732B40935201509358
S113192053016093540170935501B09B1AC0019602
S1131930092E000CAA0BBB0BBC0155274427809130
S1131940840090918500A0E0B0E0842B952BA62B19
S1131950B72B8093520190935301A0935401B093F9
S11319605501E0910A02F0910B02309739F06CE0D6
S113197070E0809172019091730109950E94FC06B8
S1131980FF91EF91BF91AF919F918F917F916F9153
S11319905F914F913F912F911F910F910F900FBE27
S11319A00F901F9018951F920F920FB60F9211244B
S11319B00F931F932F933F934F935F936F937F9353
S11319C08F939F93AF93BF93EF93FF9380915001B5
S11319D090915101AC01092E000C660B770B9A0112
S11319E011270027409184005091850060E070E049
S11319F0402B512B622B732B409352015093530174
S1131A006093540170935501B09B1AC00196092E3E
S1131A10000CAA0BBB0BBC01552744278091840002
S1131A2090918500A0E0B0E0842B952BA62BB72BDA
S1131A308093520190935301A0935401B0935501A4
S1131A40E0910C02F0910D02309739F06DE070E0F6
S1131A50809174019091750109950E94FC06FF9193
S1131A60EF91BF91AF919F918F917F916F915F9112
S1131A704F913F912F911F910F910F900FBE0F9097
S1131A801F9018951F920F920FB60F9211240F9367
S1131A901F932F933F934F935F936F937F938F93F2
S1131AA09F93AF93BF93EF93FF93809150019091D5
S1131AB05101AC01092E000C660B770B9A0111271A
S1131AC00027409184005091850060E070E0402B35
S1131AD0512B622B732B409352015093530160930B
S1131AE0540170935501B09B1AC00196092E000C45
S1131AF0AA0BBB0BBC01552744278091840090910D
S1131B008500A0E0B0E0842B952BA62BB72B809307
S1131B10520190935301A0935401B0935501E09165
S1131B200E02F0910F02309739F06EE070E0809170
S1131B3076019091770109950E94FC06FF91EF913F
S1131B40BF91AF919F918F917F916F915F914F91D1
S1131B503F912F911F910F910F900FBE0F901F90E7
S1131B6018951F920F920FB60F9211240F931F9383
S1131B702F933F934F935F936F937F938F939F9391
S1131B80AF93BF93EF93FF938091500190915101D4
S1131B90AC01092E000C660B770B9A011127002764
S1131BA0409184005091850060E070E0402B512BFF
S1131BB0622B732B40935201509353016093540151
S1131BC070935501B09B1AC00196092E000CAA0B04
S1131BD0BB0BBC015527442780918400909185005C
S1131BE0A0E0B0E0842B952BA62BB72B8093520159
S1131BF090935301A0935401B0935501E0911002C6
S1131C00F0911102309739F06FE070E08091780123
S1131C109091790109950E94FC06FF91EF91BF9183
S1131C20AF919F918F917F916F915F914F913F9170
S1131C302F911F910F910F900FBE0F901F90189529
S1131C401F920F920FB60F9211240F931F932F938D
S1131C503F934F935F936F937F938F939F93AF9330
S1131C60BF93EF93FF938091500190915101AC0188
S1131C70092E000C660B770B9A011127002740915F
S1131C8084005091850060E070E0402B512B622B62
S1131C90732B4093520150935301609354017093FA
S1131CA05501B09B1AC00196092E000CAA0BBB0B60
S1131CB0BC01552744278091840090918500A0E0C1
S1131CC0B0E0842B952BA62BB72B809352019093D5
S1131CD05301A0935401B0935501E0911202F09185
S1131CE01302309739F060E170E080917A019091AD
S1131CF07B0109950E94FC06FF91EF91BF91AF9182
S1131D009F918F917F916F915F914F913F912F910F
S1131D101F910F910F900FBE0F901F9018951F9257
S1131D200F920FB60F9211240F931F932F933F938B
S1131D304F935F936F937F938F939F93AF93BF93CF
S1131D40EF93FF938091500190915101AC01092EC2
S1131D50000C660B770B9A01112700274091840031
S1131D605091850060E070E0402B512B622B732B67
S1131D704093520150935301609354017093550161
S1131D80B09B1AC00196092E000CAA0BBB0BBC0118
S1131D90552744278091840090918500A0E0B0E00D
S1131DA0842B952BA62BB72B809352019093530130
S1131DB0A0935401B0935501E0911402F0911502DF
S1131DC0309739F061E170E080917C0190917D0160
S1131DD009950E94FC06FF91EF91BF91AF919F91ED
S1131DE08F917F916F915F914F913F912F911F91AF
S1131DF00F910F900FBE0F901F9018950E94FC0634
S1131E00789481E083BF8895FCCF1F920F920FB620
S1131E100F9211242F933F934F935F936F937F936C
S1131E208F939F93EF93FF93809150019091510171
S1131E3001969093510180935001E0915601F091E5
S1131E405701309701F1428153816481758186176E
S1131E509707C9F4CA012091840030918500421B80
S1131E60530B4130510529F48091840090918500F1
S1131E7001969093890080938800EFE6F0E08081DA
S1131E808260808305C0EFE6F0E080818D7F8083EF
S1131E90FF91EF919F918F917F916F915F914F91FE
S1131EA03F912F910F900FBE0F901F9018951F9286
S1131EB00F920FB60F921124CF92DF92EF92FF92FE
S1131EC02F933F934F935F936F937F938F939F933E
S1131ED0AF93BF93EF93FF93809150019091510181
S1131EE06C01092E000CEE08FF087601DD24CC24D9
S1131EF0409184005091850060E070E0C42AD52AA6
S1131F00E62AF72AB09B1EC06C012FEFC21AD20A30
S1131F100D2C000CEE08FF08D60199278827C090E5
S1131F208400D0908500E12CF12CC82AD92AEA2A11
S1131F30FB2A08C086E591E00E94B60668E571E0D8
S1131F400E945406E0915601F0915701309769F0D0
S1131F5082819381A481B5818C199D09AE09BF0941
S1131F60181619061A061B062CF7309721F18281E0
S1131F709381A481B58120915001309151012A1798
S1131F803B07C9F49C014091840050918500841B57
S1131F90950B019731F420918400309185002F5FD7
S1131FA03F4F3093890020938800EFE6F0E0808172
S1131FB08260808305C0EFE6F0E080818D7F8083BE
S1131FC00E94FC06FF91EF91BF91AF919F918F9179
S1131FD07F916F915F914F913F912F91FF90EF907F
S1131FE0DF90CF900F900FBE0F901F9018953F92E7
S1131FF04F925F926F927F928F929F92AF92BF9215
S1132000CF92DF92EF92FF920F931F93CF93DF93C0
S11320102B013C0149015A018FB78078382EF8947E
S113202085E391E00E94B606EC011B870A87FD86D2
S1132030EC86DF86CE86332061F0E0912F01F091AB
S113204030010280F381E02D82819381A481B581E6
S113205008C08091520190915301A0915401B09114
S11320605501480E591E6A1E7B1E4A825B826C8291
S11320707D82181419041A041B0444F00F2E8824BA
S11320808A94982CA82CFFE7BF2EF02D840C951C65
S1132090A61CB71C8E829F82A886B9862091500107
S11320A030915101C901032E000CAA0BBB0BDC01BA
S11320B099278827409184005091850060E070E062
S11320C0842B952BA62BB72BB09B13C0C90101966B
S11320D0092E000CAA0BBB0BDC0199278827409121
S11320E084005091850060E070E0842B952BA62B32
S11320F0B72B481A590A6A0A7B0A141415041604E1
S11321001704ACF566E571E0CE010E948506E09106
S11321105601F0915701309721F182819381A48176
S1132120B58120915001309151012A173B07C9F420
S11321309C014091840050918500841B950B01976C
S113214031F420918400309185002F5F3F4F30930C
S1132150890020938800EFE6F0E08081826080832C
S113216039C0EFE6F0E080818D7F808333C068E57D
S113217071E0CE010E945406332061F18091330155
S113218090913401892B31F1E0915801F09159017A
S113219086819781A085B185E0913101F09132016A
S11321A00280F381E02D4681578160857185841B0F
S11321B0950BA60BB70B72F483E391E00E94F20631
S11321C061E371E00E94E80680913101909132014F
S11321D00E943406332009F07894CE01DF91CF9128
S11321E01F910F91FF90EF90DF90CF90BF90AF9031
S11321F09F908F907F906F905F904F903F90089545
S1132200CF92DF92EF92FF920F931F93CF93DF93BE
S1132210EC017B016A011FB71078F894A881B98199
S1132220109719F435C0A081B1811496ED91FC91F9
S113223015973097C1F720912F0130913001A217E3
S1132240B30711F0111107C0112309F44AC078949F
S11322508FEF9FEF4EC08A819B81009719F0FC019C
S1132260158214823B832A83F901D583C483CD016B
S11322700E943406E0912F01F09130018281938114
S1132280892B31F4112381F1789480E090E031C0FE
S113229080912F019091300199838883112329F033
S11322A08A819B81019709F07894B601CE01F701E8
S11322B00995F82E092F8FB7F894198218828A810C
S11322C09B818230910538F01B821A82FC011582B1
S11322D014820E943406112351F078948F2D902F8C
S11322E008C08FEF9FEF05C080E090E002C08F2D03
S11322F0902FDF91CF911F910F91FF90EF90DF907E
S1132300CF90089500912F011091300188E591E05C
S11323100E94B606EC01F8019383828378946C855D
S11323207D854E855F858A859B850E9400118FB7C8
S1132330F89465E371E0CE010E94DE06E09131017C
S1132340F09132010190F081E02DC281D381E091BE
S11323505801F09159013097A1F0209799F28681A4
S11323609781A085B1854E815F8168857985841BBD
S1132370950BA60BB70B181619061A061B060CF0BC
S1132380C1CF81E391E00E94F20663E371E00E9411
S1132390E806A0913101B091320102C0A081B1815F
S11323A01496ED91FC9115973097C1F7CD010E94D9
S11323B03406A8CFFC014231B8F49FB79078F89462
S11323C050E0440F551FDA01A65ABE4FED93FC931B
S11323D0DA01AE50BE4F6D937C9321E030E033833D
S11323E02283992309F0789408958C017B016A0172
S11323F08FB7F8940E9495057894E114F10441F0A4
S113240020E030E0A90160E070E0CB010E94F70F0A
S11324108FB7F8940E94FE0E97FB072E16F40094D3
S113242007D077FD09D00E942D1207FC05D03EF499
S1132430909581959F4F0895709561957F4F08956C
S1132440EE0FFF1F0590F491E02D09940E944112B4
S1132450B7FF0895821B930B0895AA1BBB1B51E180
S113246007C0AA1FBB1FA617B70710F0A61BB70B00
S1132470881F991F5A95A9F780959095BC01CD01A5
S11324800895A29FB001B39FC001A39F700D811D49
S11324901124911DB29F700D811D1124911D089569
S11324A0DC012D923D924D925D926D927D928D92C2
S11324B09D92AD92BD92CD92DD92ED92FD920D93DF
S11324C01D93CD93DD93FF91EF918DB78D938EB7CF
S11324D08D938FB78D93ED93FD9388279927099456
S11324E0DC01CB0181309105811D2D903D904D90F3
S11324F05D906D907D908D909D90AD90BD90CD90B0
S1132500DD90ED90FD900D911D91CD91DD91ED91BA
S1132510FD910D90F894FEBF0FBEEDBFED91FD91BE
S10925200994F894FFCFBA
S113252600000000000000000000010000000000A0
S11325360000000000000000040000000004010088
S11325460000000000000000060100000000001664
S11325560216027E01330251158020111E111B50F2
S10F25660B411B411F1101511F510B00C0
S9030000FC
