:100000000C942E000C944B000C944B000C94210487
:100010000C944B000C944B000C944B000C94FB0381
:100020000C944B000C944B000C944B000C944B0024
:100030000C944B000C944B000C944B000C944B0014
:100040000C944B000C944B000C944B000C944B0004
:100050000C944B000C944B000C944B0011241FBECD
:10006000CFEFD4E0DEBFCDBF11E0A0E0B1E0ECE91E
:10007000F9E002C005900D92AA32B107D9F723E04A
:10008000AAE2B1E001C01D92AF35B207E1F70E94CC
:1000900075020C94CC040C94000082E391E00E9461
:1000A0009D030E94BF020E94CB020A970CF40895A0
:1000B0009091FE0081E0911104C08093FE000C94A9
:1000C000D20280E08093FE000C94D20281538930EA
:1000D00008F054C0E82FF0E0EE0FFF1FE85EFE4F7F
:1000E000808191816230710509F44EC063307105E1
:1000F0000CF480C06430710509F4BEC00CF4F4C087
:100100006530710509F0EEC02091EE00880F991F4F
:10011000FC01E050FF4F8081918182959295907F04
:100120009827807F9827922F9F70892B8093EE00CD
:100130008091F3009081907F8F70892B8093F300E2
:100140002091F8008081918188279F7095958795EF
:10015000959587959595879595958795922F9F70FD
:10016000892B8093F8008091FD0020813181222726
:10017000307F8F70832B8093FD00089580E090E0A6
:100180006230710509F0B2CF2091ED00880F991F00
:10019000FC01E050FF4F8081982F9F70822F807F5D
:1001A000892B8093ED002091F20080819181807FE6
:1001B0009927959587959595879595958795959583
:1001C0008795922F907F892B8093F2008091F70082
:1001D0002081318122273F70807F832B8093F7001D
:1001E0008091FC00918192959F70807F892B8093F4
:1001F000FC0008956115710509F4B0C06130710506
:1002000009F071C02091EC00880F991FFC01E050AB
:10021000FF4F8081918182959295907F9827807F72
:100220009827922F9F70892B8093EC008091F1008A
:100230009081907F8F70892B8093F1002091F60040
:100240008081918188279F70959587959595879551
:100250009595879595958795922F9F70892B80937B
:10026000F6008091FB00208131812227307F8F7042
:10027000832B8093FB0008952091EE00880F991F37
:10028000FC01E050FF4F8081982F9F70822F807F6C
:10029000892B8093EE002091F30080819181807FF3
:1002A0009927959587959595879595958795959592
:1002B0008795922F907F892B8093F3008091F8008F
:1002C0002081318122273F70807F832B8093F8002B
:1002D0008091FD00918192959F70807F892B809302
:1002E000FD000895089508952091ED00880F991F4D
:1002F000FC01E050FF4F8081918182959295907F23
:100300009827807F9827922F9F70892B8093ED00EC
:100310008091F2009081907F8F70892B8093F20002
:100320002091F7008081918188279F70959587950E
:10033000959587959595879595958795922F9F701B
:10034000892B8093F7008091FC0020813181222746
:10035000307F8F70832B8093FC0008952091EC00F8
:10036000880F991FFC01E050FF4F8081982F9F70EC
:10037000822F807F892B8093EC002091F100808177
:100380009181807F992795958795959587959595E6
:10039000879595958795922F907F892B8093F10073
:1003A0008091F6002081318122273F70807F832B4E
:1003B0008093F6008091FB00918192959F70807FE1
:1003C000892B8093FB000895CF92DF92EF92FF92EA
:1003D000CF93DF936B017C01EA018AE291E00E94F6
:1003E0009D03C630D105D8F02196C630D10568F4FA
:1003F000C701B6012AE030E040E050E00E944A0424
:10040000862FBE01805D0E9466008AE291E0DF9146
:10041000CF91FF90EF90DF90CF900C94C903C7016C
:10042000B60124E630E040E050E00E944A042AE0B1
:1004300030E040E050E00E944A04BE0180E3820FB9
:100440000E946600D1CF8EE291E00E949D0380E879
:1004500085B91F9913C060913C0170913D016F5F98
:100460007F4F70933D0160933C0183B1072E000CD8
:10047000880B990B44E050E00C94E40160913C013E
:1004800070913D01F2CFEC01812C912C54018394A9
:1004900083E088169104A104B104E4F080FE1FC03B
:1004A00083E0C82ED12CE12CF12C0DC08FEFC81A9F
:1004B000D80AE80AF80AC501B4010E944A04672B69
:1004C000682B692B61F09601A701C814D904EA04CE
:1004D000FB0461F7AE01C501B4010E94E4018FEF96
:1004E000881A980AA80AB80AD3CF2F9AE1E6F0E052
:1004F00080E88083108287EB8093E5008FE0809313
:10050000E70087E08093E60080EC8093E40082E3DC
:1005100091E00E949D038EE291E00E949D0360E0C5
:1005200070E083E292E00E94D90260E070E08DE426
:1005300090E00E94D90280E090E00E944302CF93B5
:10054000DF9300D0CDB7DEB79A8389838091140101
:100550009091150106960E948B04892B29F00F902B
:100560000F90DF91CF91089589819A819093150121
:100570008093140161E070E006960E94AB04F89449
:1005800080913601909137010196909337018093C5
:10059000360178940895F89480913601909137014E
:1005A00078940895F8941092370110923601789457
:1005B0000895CF93DF9300D0CDB7DEB7F8942091A4
:1005C000380130913901232B09F443C020911601E1
:1005D000309117013A832983232B09F47EC0E981E6
:1005E000FA814481558150931701409316019183FC
:1005F00080837383628315821482CF0106960E94E2
:100600008B04019709F46AC0E981FA8136968981E1
:100610009A8187599F4F918B808B938B828BE0912E
:100620001401F091150180913A0190913B010097DE
:1006300011F095838483F0933B01E0933A01898123
:100640009A810E949F0278940F900F90DF91CF9132
:10065000089528E132E03093B0012093AF0125E8FE
:1006600032E030931D0220931C0222EF32E03093DF
:100670008A02209389021092F7021092F602EF9AF2
:10068000ECE6F0E0208120682083E0E8F0E02081C3
:10069000206C2083E1E8F0E020812D602083EFE6EC
:1006A000F0E020812260208327E831E03093890048
:1006B00020938800109285001092840021E030E0A1
:1006C00030933901209338012091160130911701A0
:1006D0003A832983232B09F082CFFFCF7894A0910E
:1006E0001401B0911501ED91FC91119712968D9125
:1006F0009C9113970995F894E0911401F0911501DC
:100700008091160190911701009711F095838483D1
:10071000F0931701E093160180913A0190913B010B
:10072000009751F0FC012481358130933B012093E7
:100730003A010E949F0268CFFFCFFC01F8948081AC
:100740009181892B01F1A0911401B0911501828151
:100750009381009721F015969C938E931497B38301
:10076000A28380913A0190913B01009759F0FC01DE
:100770002481358130933B0120933A010E949F02EE
:1007800078940895FFCF81E090E0918380837894FE
:100790000895FC01F89482819381009719F1A0914A
:1007A0001401B091150120913A0130913B012115BE
:1007B0003105E1F015963C932E931497B0933B01CD
:1007C000A0933A0182819381009759F0DC0114963D
:1007D0002D913C911597338322830E949F02789438
:1007E0000895FFCF1182108278940895B0933B0151
:1007F000A0933A01EBCF1F920F920FB60F921124E4
:100800002F933F934F935F936F937F938F939F9318
:10081000AF93BF93EF93FF9382E391E00E94C903EC
:10082000FF91EF91BF91AF919F918F917F916F91C8
:100830005F914F913F912F910F900FBE0F901F909E
:1008400018951F920F920FB60F9211242F933F937A
:100850004F935F936F937F938F939F93AF93BF93C8
:10086000EF93FF932F9911C0FF91EF91BF91AF913B
:100870009F918F917F916F915F914F913F912F91B8
:100880000F900FBE0F901F9018958EE291E00E947E
:10089000C903EACF052E97FB1EF400940E94610461
:1008A00057FD07D00E94690407FC03D04EF40C9456
:1008B000610450954095309521953F4F4F4F5F4FC4
:1008C000089590958095709561957F4F8F4F9F4FBC
:1008D0000895A1E21A2EAA1BBB1BFD010DC0AA1F81
:1008E000BB1FEE1FFF1FA217B307E407F50720F099
:1008F000A21BB30BE40BF50B661F771F881F991F14
:100900001A9469F760957095809590959B01AC015C
:10091000BD01CF010895DC012D923D924D925D9273
:100920006D927D928D929D92AD92BD92CD92DD920F
:10093000ED92FD920D931D93CD93DD93FF91EF9179
:100940008DB78D938EB78D938FB78D93ED93FD9368
:10095000882799270994DC01CB0181309105811DFD
:100960002D903D904D905D906D907D908D909D90DF
:10097000AD90BD90CD90DD90ED90FD900D911D91CD
:10098000CD91DD91ED91FD910D90F894FEBF0FBEDC
:0C099000EDBFED91FD910994F894FFCFAC
:10099C0051158020111E111B500B411B411F1101C1
:1009AC00511F510B3E01AB0101000200030004007A
:0A09BC00050006000700080009000E
:00000001FF
