:100000000C942E000C944B000C944B000C94AB03FE
:100010000C944B000C944B000C944B000C94D203AA
:100020000C944B000C944B000C944B000C944B0024
:100030000C944B000C944B000C944B000C944B0014
:100040000C944B000C944B000C944B000C944B0004
:100050000C944B000C944B000C944B0011241FBECD
:10006000CFEFD4E0DEBFCDBF11E0A0E0B1E0EAEE1B
:10007000F9E002C005900D92AA32B107D9F723E04A
:10008000AAE2B1E001C01D92A535B207E1F70E94D6
:1000900064020C94F3040C9400008153893008F03E
:1000A00054C0E82FF0E0EE0FFF1FE85EFE4F8081A6
:1000B00091816230710509F44EC0633071050CF412
:1000C00080C06430710509F4BEC00CF4F4C0653022
:1000D000710509F0EEC02091EE00880F991FFC0118
:1000E000E050FF4F8081918182959295907F982773
:1000F000807F9827922F9F70892B8093EE008091AC
:10010000F3009081907F8F70892B8093F300209172
:10011000F8008081918188279F70959587959595A6
:1001200087959595879595958795922F9F70892BA3
:100130008093F8008091FD00208131812227307F5B
:100140008F70832B8093FD00089580E090E06230F3
:10015000710509F0B2CF2091ED00880F991FFC01C5
:10016000E050FF4F8081982F9F70822F807F892BD6
:100170008093ED002091F20080819181807F99270A
:100180009595879595958795959587959595879557
:10019000922F907F892B8093F2008091F70020812D
:1001A000318122273F70807F832B8093F7008091DD
:1001B000FC00918192959F70807F892B8093FC0039
:1001C00008956115710509F4B0C06130710509F039
:1001D00071C02091EC00880F991FFC01E050FF4F87
:1001E0008081918182959295907F9827807F982732
:1001F000922F9F70892B8093EC008091F100908169
:10020000907F8F70892B8093F1002091F600808180
:10021000918188279F709595879595958795959558
:10022000879595958795922F9F70892B8093F600DF
:100230008091FB00208131812227307F8F70832BBA
:100240008093FB0008952091EE00880F991FFC0118
:10025000E050FF4F8081982F9F70822F807F892BE5
:100260008093EE002091F30080819181807F992717
:100270009595879595958795959587959595879566
:10028000922F907F892B8093F3008091F80020813A
:10029000318122273F70807F832B8093F8008091EB
:1002A000FD00918192959F70807F892B8093FD0046
:1002B0000895089508952091ED00880F991FFC017D
:1002C000E050FF4F8081918182959295907F982791
:1002D000807F9827922F9F70892B8093ED008091CB
:1002E000F2009081907F8F70892B8093F200209193
:1002F000F7008081918188279F70959587959595C6
:1003000087959595879595958795922F9F70892BC1
:100310008093F7008091FC00208131812227307F7B
:100320008F70832B8093FC0008952091EC00880F40
:10033000991FFC01E050FF4F8081982F9F70822F02
:10034000807F892B8093EC002091F1008081918146
:10035000807F99279595879595958795959587950C
:1003600095958795922F907F892B8093F1008091AE
:10037000F6002081318122273F70807F832B80937C
:10038000F6008091FB00918192959F70807F892B70
:100390008093FB000895CF92DF92EF92FF920F932C
:1003A0001F93CF93DF9300D0CDB7DEB76B017C01F5
:1003B0008A018AE291E00E94F603109333010093D0
:1003C000320106301105B0F11A82198289819A81B1
:1003D0008031974254F489819A8101969A83898366
:1003E00089819A8180319742B4F30F5F1F4F109338
:1003F0003301009332010630110568F4C701B601DC
:100400002AE030E040E050E00E947104862FB801FD
:10041000805D0E944D008AE291E00E9434040F90BA
:100420000F90DF91CF911F910F91FF90EF90DF9090
:10043000CF900895C701B60124E630E040E050E0D7
:100440000E9471042AE030E040E050E00E94710414
:10045000B80180E3820F0E944D000091320110919B
:100460003301B2CFEC01812C912C5401839483E0B1
:1004700088169104A104B104E4F080FE1FC083E05B
:10048000C82ED12CE12CF12C0DC08FEFC81AD80A40
:10049000E80AF80AC501B4010E947104672B682BB1
:1004A000692B61F09601A701C814D904EA04FB0482
:1004B00061F7AE01C501B4010E94CB018FEF881A2C
:1004C000980AA80AB80AD3CFE1E6F0E080E8808372
:1004D000108287EB8093E5008FE08093E70087E050
:1004E0008093E60080EC8093E40060E070E082E3BB
:1004F00092E00E949F0283E090E00E943202CF933C
:10050000DF9300D0CDB7DEB79A8389838091140141
:100510009091150106960E94B204892B29F00F9044
:100520000F90DF91CF91089589819A819093150161
:100530008093140161E070E006960E94D204CF938C
:10054000DF9300D0CDB7DEB7F89420912E01309123
:100550002F01232B09F443C020911601309117017C
:100560003A832983232B09F47FC0E981FA814481EE
:1005700055815093170140931601918380837383B3
:10058000628315821482CF0106960E94B2040197FD
:1005900009F477C0E981FA81369689819A81875971
:1005A0009F4F918B808B938B828BE981FA8115828F
:1005B0001482E0913001F0913101309711F455C06F
:1005C000FC01848195810097D9F789819A8195836F
:1005D000848378940F900F90DF91CF9108952EE04F
:1005E00032E03093A6012093A5012BE732E030934F
:1005F00013022093120228EE32E0309380022093FF
:100600007F021092ED021092EC022F9AEF9AECE624
:10061000F0E0208120682083E0E8F0E02081206C79
:100620002083E1E8F0E020812D602083EFE6F0E018
:1006300020812260208327E831E0309389002093D5
:100640008800109285001092840021E030E0309301
:100650002F0120932E0120911601309117013A832A
:100660002983232B09F081CFFFCF29813A81309351
:1006700031012093300178940F900F90DF91CF914A
:1006800008957894A0911401B0911501ED91FC9119
:10069000119712968D919C9113970995F894A091BA
:1006A0001401B091150115961C921E921497E091B9
:1006B0001601F0911701309711F417C0FC018481E5
:1006C00095810097D9F7B583A483809130019091EB
:1006D00031010097A1F0FC01248135813093310173
:1006E000209330010E947F0255CFB0931701A09351
:1006F00016018091300190913101009761F7FFCF91
:10070000F8948091140190911501FC0115821482D6
:10071000A0913001B09131011097B9F0FD0101C0F5
:10072000F9012481358121153105D1F79583848321
:1007300014962D913C911597CD0130933101209362
:1007400030010E947F0278940895009709F4FFCF4A
:1007500020E030E0F2CF1F920F920FB60F921124DB
:100760002F933F934F935F936F937F938F939F93B9
:10077000AF93BF93EF93FF932F9911C0FF91EF9128
:10078000BF91AF919F918F917F916F915F914F91A9
:100790003F912F910F900FBE0F901F9018950E94C0
:1007A0008003ECCF1F920F920FB60F9211242F935C
:1007B0003F934F935F936F937F938F939F93AF93E9
:1007C000BF93EF93FF930E948003FF91EF91BF913E
:1007D000AF919F918F917F916F915F914F913F91D9
:1007E0002F910F900FBE0F901F901895CF93DF930E
:1007F000DC01F8948D919C911197892B41F1C09166
:100800001401D09115011D821C821296ED91FC916C
:100810001397309711F423C0FC01848195810097D0
:10082000D9F7D583C483809130019091310100972D
:1008300069F0FC012481358130933101209330012E
:100840000E947F027894DF91CF910895FFCF81E0DD
:1008500090E08D939C937894DF91CF9108951396B7
:10086000DC93CE931297DFCFCF93DF93FC01F89404
:1008700082819381892B51F1C0911401D09115018E
:100880001D821C82A0913001B0913101109711F4AA
:1008900023C0DC0114968D919C9115970097C9F7A0
:1008A0001596DC93CE93149782819381009769F01B
:1008B000DC0114962D913C911597338322830E947D
:1008C0007F027894DF91CF910895FFCF118210823B
:1008D0007894DF91CF910895D0933101C093300186
:1008E000E3CF052E97FB1EF400940E94880457FD69
:1008F00007D00E94900407FC03D04EF40C948804A7
:1009000050954095309521953F4F4F4F5F4F08953B
:1009100090958095709561957F4F8F4F9F4F08956B
:10092000A1E21A2EAA1BBB1BFD010DC0AA1FBB1FF3
:10093000EE1FFF1FA217B307E407F50720F0A21B65
:10094000B30BE40BF50B661F771F881F991F1A94D2
:1009500069F760957095809590959B01AC01BD01FC
:10096000CF010895DC012D923D924D925D926D92E2
:100970007D928D929D92AD92BD92CD92DD92ED923F
:10098000FD920D931D93CD93DD93FF91EF918DB764
:100990008D938EB78D938FB78D93ED93FD938827AD
:1009A00099270994DC01CB0181309105811D2D909F
:1009B0003D904D905D906D907D908D909D90AD900F
:1009C000BD90CD90DD90ED90FD900D911D91CD915C
:1009D000DD91ED91FD910D90F894FEBF0FBEEDBF3E
:0A09E000ED91FD910994F894FFCF0A
:1009EA0051158020111E111B500B411B411F110173
:1009FA00511F510B3401A101010002000300040040
:0A0A0A0005000600070008000900BF
:00000001FF
