S00C00006C6162332E73726563B6
S11300000C942E000C944B000C944B000C944B005D
S11300100C944B000C944B000C944B000C94DD049A
S11300200C944B000C944B000C944B000C944B0020
S11300300C944B000C944B000C944B000C944B0010
S11300400C944B000C944B000C944B000C944B0000
S11300500C944B000C944B000C944B0011241FBEC9
S1130060CFEFD4E0DEBFCDBF11E0A0E0B1E0E0E22D
S1130070FBE002C005900D92AA32B107D9F723E044
S1130080AAE2B1E001C01D92A935B207E1F70E94CE
S1130090A7030C948E050C940000CF93DF93CDB787
S11300A0DEB7C05ED1400FB6F894DEBF0FBECDBF41
S11300B08153893008F098C0E82FF0E0EE0FFF1F5D
S11300C0E85EFE4F808191816230710509F492C02F
S11300D0633071050CF4FFC06430710509F478C114
S11300E00CF446C26530710509F074C04091EE000D
S11300F024E1E4E0F1E0DE01AF56BE4F01900D9241
S11301002A95E1F7880F991FE1E9F1E0EC0FFD1F53
S1130110E80FF91F2081318122953295307F3227F3
S1130120207F32274F70242B2093EE002091F30080
S113013034E1E4E0F1E0DE01AB55BE4F01900D92F5
S11301403A95E1F7E5EAF1E0EC0FFD1FE80FF91F3E
S11301503081307F2F70232B2093F3004091F800DF
S113016024E1E4E0F1E0DE01A754BE4F01900D92DA
S11301702A95E1F7E9EBF1E0EC0FFD1FE80FF91F19
S11301802081318122273F70359527953595279514
S113019035952795359527954F70242B2093F80096
S11301A02091FD0034E1E4E0F1E0DE01A353BE4F11
S11301B001900D923A95E1F7EDECF1E0EC0FFD1FA3
S11301C0E80FF91F808191818827907F2F70292B58
S11301D02093FD00C052DE4F0FB6F894DEBF0FBE71
S11301E0CDBFDF91CF91089580E090E0623071053A
S11301F009F06ECF2091ED0034E1E4E0F1E0DE019E
S1130200AF55BF4F01900D923A95E1F7880F991FB2
S1130210E1EAF0E0EC0FFD1FE80FF91F30813F70B9
S1130220207F232B2093ED004091F20024E1E4E0B1
S1130230F1E0DE01AB54BF4F01900D922A95E1F736
S1130240E5EBF0E0EC0FFD1FE80FF91F2081318191
S1130250207F33273595279535952795359527950F
S113026035952795407F242B2093F2002091F700A9
S113027034E1E4E0F1E0DE01A753BF4F01900D92B9
S11302803A95E1F7E9ECF0E0EC0FFD1FE80FF91FF8
S11302904081518144275F70207F252B2093F700F4
S11302A02091FC0034E1E4E0F1E0DE01A352BF4F11
S11302B001900D923A95E1F7EDEDF0E0EC0FFD1FA2
S11302C0E80FF91F918192959F70822F807F892B6F
S11302D08093FC007FCF6115710509F4EAC0613099
S11302E0710509F077CF4091EC0024E1E4E0F1E0FE
S11302F0DE01AF5ABF4F01900D922A95E1F7880FA6
S1130300991FE1E5F0E0EC0FFD1FE80FF91F2081D4
S1130310318122953295307F3227207F32274F70EA
S1130320242B2093EC002091F10034E1E4E0F1E08F
S1130330DE01AB59BF4F01900D923A95E1F7E5E626
S1130340F0E0EC0FFD1FE80FF91F3081307F2F70B4
S1130350232B2093F1004091F60024E1E4E0F1E046
S1130360DE01A758BF4F01900D922A95E1F7E9E706
S1130370F0E0EC0FFD1FE80FF91F208131812227E7
S11303803F7035952795359527953595279535955E
S113039027954F70242B2093F6002091FB0034E125
S11303A0E4E0F1E0DE01A357BF4F01900D923A95CE
S11303B0E1F7EDE8F0E0EC0FFD1FE80FF91F808195
S11303C091818827907F2F70292B2093FB0002CFE7
S11303D02091EE0034E1E4E0F1E0DE01AF5BBE4FDA
S11303E001900D923A95E1F7880F991FE1E4F1E04D
S11303F0EC0FFD1FE80FF91F30813F70207F232B86
S11304002093EE004091F30024E1E4E0F1E0DE010A
S1130410AB5ABE4F01900D922A95E1F7E5E5F1E064
S1130420EC0FFD1FE80FF91F20813181207F332756
S113043035952795359527953595279535952795A0
S1130440407F242B2093F3002091F80034E1E4E072
S1130450F1E0DE01A759BE4F01900D923A95E1F704
S1130460E9E6F1E0EC0FFD1FE80FF91F408151812F
S113047044275F70207F252B2093F8002091FD00F6
S113048034E1E4E0F1E0DE01A358BE4F01900D92A7
S11304903A95E1F7EDE7F1E0EC0FFD1FE80FF91FE6
S11304A0918192959F70822F807F892B8093FD008C
S11304B091CE2091EC0034E1E4E0F1E0DE0111960C
S11304C001900D923A95E1F7880F991F41E050E0B1
S11304D04C0F5D1F840F951FFC0130813F70207FFE
S11304E0232B2093EC004091F10024E1E4E0F1E0BF
S11304F0DE01559601900D922A95E1F7FC012489BD
S11305003589207F3327359527953595279535955A
S1130510279535952795407F242B2093F100209132
S1130520F60034E1E4E0F1E0DE01999601900D92E9
S11305303A95E1F7FC0140A551A544275F70207F5F
S1130540252B2093F6002091FB0034E1E4E0F1E058
S1130550DE01DD9601900D923A95E1F7FC0195AD2F
S113056092959F70822F807F892B8093FB0032CEDF
S11305704091ED0024E1E4E0F1E0DE01AF50BF4F33
S113058001900D922A95E1F7880F991FE1EFF0E0B1
S1130590EC0FFD1FE80FF91F208131812295329560
S11305A0307F3227207F32274F70242B2093ED0099
S11305B02091F20034E1E4E0F1E0DE01AB5FBE4FF4
S11305C001900D923A95E1F7E5E0F1E0EC0FFD1FA3
S11305D0E80FF91F3081307F2F70232B2093F20016
S11305E04091F70024E1E4E0F1E0DE01A75EBE4FB4
S11305F001900D922A95E1F7E9E1F1E0EC0FFD1F7E
S1130600E80FF91F2081318122273F703595279506
S11306103595279535952795359527954F70242B36
S11306202093F7002091FC0034E1E4E0F1E0DE01E6
S1130630A35DBE4F01900D923A95E1F7EDE2F1E032
S1130640EC0FFD1FE80FF91F808191818827907FAF
S11306502F70292B2093FC00BDCDCF92DF92EF9217
S1130660FF92CF93DF936B017C01EA015093310138
S1130670409330014630510510F12196D093310159
S1130680C0933001C630D10538F0DF91CF91FF908F
S1130690EF90DF90CF900895C701B6012AE030E0D3
S11306A040E050E00E940C05862FBE01805DDF9182
S11306B0CF91FF90EF90DF90CF900C944D0024E603
S11306C030E040E050E00E940C052AE030E040E0D9
S11306D050E00E940C05BE0180E3820F0E944D0091
S11306E0C0913001D0913101C8CFEC01812C912C03
S11306F05401839483E088169104A104B104E4F0C6
S113070080FE1FC083E0C82ED12CE12CF12C0DC03B
S11307108FEFC81AD80AE80AF80AC501B4010E9482
S11307200C05672B682B692B61F09601A701C8148F
S1130730D904EA04FB0461F7AE01C501B4010E94C7
S11307402D038FEF881A980AA80AB80AD3CFE1E6D6
S1130750F0E080E88083108287EB8093E5008FE0EF
S11307608093E70087E08093E60080EC8093E400C8
S113077060E070E085E793E00E94E10380E090E0B0
S11307800895CF93DF9300D0CDB7DEB79A838983E2
S1130790809100019091010106960E944D05892BDC
S11307A029F00F900F90DF91CF91089589819A815C
S11307B0909301018093000161E070E006960E942D
S11307C06D05CF93DF9300D0CDB7DEB7F8942091B9
S11307D02C0130912D01232B09F443C020910201F7
S11307E0309103013A832983232B09F46FC0E981F3
S11307F0FA8144815581509303014093020191830E
S113080080837383628315821482CF0106960E94CB
S11308104D05019709F467C0E981FA81369689810B
S11308209A8187599F4F918B808B938B828BE9811F
S1130830FA8115821482E0912E01F0912F013097F4
S113084011F445C0FC01848195810097D9F7898111
S11308509A819583848378940F900F90DF91CF9140
S1130860089522E132E03093AA012093A9012FE7F1
S113087032E030931702209316022CEE32E03093CC
S11308808402209383021092F1021092F002EF9AF4
S1130890E0E8F0E02081206C2083E1E8F0E02081B2
S11308A02D602083EFE6F0E020812260208321E0A8
S11308B030E030932D0120932C01209102013091DE
S11308C003013A832983232B09F091CFFFCF298198
S11308D03A8130932F0120932E0178940F900F903A
S11308E0DF91CF9108957894A0910001B091010116
S11308F0ED91FC91119712968D919C911397099506
S1130900F894A0910001B091010115961C921E92D9
S11309101497E0910201F0910301309711F417C08C
S1130920FC01848195810097D9F7B583A4838091D4
S11309302E0190912F010097A1F0FC0124813581B3
S113094030932F0120932E010E94C10365CFB093F1
S11309500301A093020180912E0190912F01009731
S113096061F7FFCFF8948091000190910101FC019F
S113097015821482A0912E01B0912F011097B9F025
S1130980FD0101C0F9012481358121153105D1F71B
S11309909583848314962D913C911597CD013093C2
S11309A02F0120932E010E94C1037894089500978B
S11309B009F4FFCF20E030E0F2CF1F920F920FB680
S11309C00F9211242F933F934F935F936F937F93D1
S11309D08F939F93AF93BF93EF93FF93F89480917A
S11309E02A0190912B01019690932B0180932A0167
S11309F078940E94B204FF91EF91BF91AF919F91BF
S1130A008F917F916F915F914F913F912F910F90B3
S1130A100FBE0F901F901895052E97FB1EF400949F
S1130A200E94230557FD07D00E942B0507FC03D025
S1130A304EF40C94230550954095309521953F4FE5
S1130A404F4F5F4F089590958095709561957F4FB6
S1130A508F4F9F4F0895A1E21A2EAA1BBB1BFD01C5
S1130A600DC0AA1FBB1FEE1FFF1FA217B307E40789
S1130A70F50720F0A21BB30BE40BF50B661F771FE1
S1130A80881F991F1A9469F76095709580959095C1
S1130A909B01AC01BD01CF010895DC012D923D9273
S1130AA04D925D926D927D928D929D92AD92BD928A
S1130AB0CD92DD92ED92FD920D931D93CD93DD9336
S1130AC0FF91EF918DB78D938EB78D938FB78D93E3
S1130AD0ED93FD93882799270994DC01CB0181309C
S1130AE09105811D2D903D904D905D906D907D9070
S1130AF08D909D90AD90BD90CD90DD90ED90FD904A
S1130B000D911D91CD91DD91ED91FD910D90F89494
S1130B10FEBF0FBEEDBFED91FD910994F894FFCF98
S1130B203801A50151158020111E111B500B411BCA
S1130B30411F1101511F510B010002000300040069
S10D0B400500060007000800090084
S9030000FC
