:100000000C942E000C944B000C944B000C94F803B1
:100010000C944B000C944B000C944B000C94C903B3
:100020000C944B000C944B000C944B000C944B0024
:100030000C944B000C944B000C944B000C944B0014
:100040000C944B000C944B000C944B000C944B0004
:100050000C944B000C944B000C944B0011241FBECD
:10006000CFEFD4E0DEBFCDBF11E0A0E0B1E0E6E429
:10007000F9E002C005900D92AA32B107D9F723E04A
:10008000AAE2B1E001C01D92A335B207E1F70E94D8
:100090006E020C94A1040C9400000E94B0020A9716
:1000A000E4F39091FE0081E0911105C08093FE0081
:1000B0000E94B702F2CF80E0F9CF8153893008F077
:1000C00054C0E82FF0E0EE0FFF1FE85EFE4F808186
:1000D00091816230710509F44EC0633071050CF4F2
:1000E00080C06430710509F4BEC00CF4F4C0653002
:1000F000710509F0EEC02091EE00880F991FFC01F8
:10010000E050FF4F8081918182959295907F982752
:10011000807F9827922F9F70892B8093EE0080918B
:10012000F3009081907F8F70892B8093F300209152
:10013000F8008081918188279F7095958795959586
:1001400087959595879595958795922F9F70892B83
:100150008093F8008091FD00208131812227307F3B
:100160008F70832B8093FD00089580E090E06230D3
:10017000710509F0B2CF2091ED00880F991FFC01A5
:10018000E050FF4F8081982F9F70822F807F892BB6
:100190008093ED002091F20080819181807F9927EA
:1001A0009595879595958795959587959595879537
:1001B000922F907F892B8093F2008091F70020810D
:1001C000318122273F70807F832B8093F7008091BD
:1001D000FC00918192959F70807F892B8093FC0019
:1001E00008956115710509F4B0C06130710509F019
:1001F00071C02091EC00880F991FFC01E050FF4F67
:100200008081918182959295907F9827807F982711
:10021000922F9F70892B8093EC008091F100908148
:10022000907F8F70892B8093F1002091F600808160
:10023000918188279F709595879595958795959538
:10024000879595958795922F9F70892B8093F600BF
:100250008091FB00208131812227307F8F70832B9A
:100260008093FB0008952091EE00880F991FFC01F8
:10027000E050FF4F8081982F9F70822F807F892BC5
:100280008093EE002091F30080819181807F9927F7
:100290009595879595958795959587959595879546
:1002A000922F907F892B8093F3008091F80020811A
:1002B000318122273F70807F832B8093F8008091CB
:1002C000FD00918192959F70807F892B8093FD0026
:1002D0000895089508952091ED00880F991FFC015D
:1002E000E050FF4F8081918182959295907F982771
:1002F000807F9827922F9F70892B8093ED008091AB
:10030000F2009081907F8F70892B8093F200209172
:10031000F7008081918188279F70959587959595A5
:1003200087959595879595958795922F9F70892BA1
:100330008093F7008091FC00208131812227307F5B
:100340008F70832B8093FC0008952091EC00880F20
:10035000991FFC01E050FF4F8081982F9F70822FE2
:10036000807F892B8093EC002091F1008081918126
:10037000807F9927959587959595879595958795EC
:1003800095958795922F907F892B8093F10080918E
:10039000F6002081318122273F70807F832B80935C
:1003A000F6008091FB00918192959F70807F892B50
:1003B0008093FB000895CF92DF92EF92FF92CF934C
:1003C000DF936B017C01EA0146305105F0F0219684
:1003D000C630D10538F0DF91CF91FF90EF90DF90DC
:1003E000CF900895C701B6012AE030E040E050E028
:1003F0000E941F04862FBE01805DDF91CF91FF9088
:10040000EF90DF90CF900C945D0024E630E040E068
:1004100050E00E941F042AE030E040E050E00E94DB
:100420001F04BE0180E3820F0E945D00D0CF80E8F0
:1004300085B9C1E017C06091300170913101CC23C2
:1004400039F06F5F7F4F7093310160933001C0E0EE
:100450001F9910C0072E000C880B990B44E050E048
:100460000E94DB011F9BE7CF609130017091310149
:100470001F9BF0CFC1E0EECFEC01812C912C5401F9
:10048000839483E088169104A104B104E4F080FE13
:100490001FC083E0C82ED12CE12CF12C0DC08FEFB2
:1004A000C81AD80AE80AF80AC501B4010E941F0454
:1004B000672B682B692B61F09601A701C814D9043A
:1004C000EA04FB0461F7AE01C501B4010E94DB013F
:1004D0008FEF881A980AA80AB80AD3CF2F9AE1E6B4
:1004E000F0E080E88083108287EB8093E5008FE066
:1004F0008093E70087E08093E60080EC8093E4003F
:1005000060E070E087E192E00E94BE0260E070E08F
:100510008DE490E00E94BE0280E090E00E943C02E8
:10052000CF93DF9300D0CDB7DEB79A8389838091D4
:1005300014019091150106960E946004892B29F000
:100540000F900F90DF91CF91089589819A819093B8
:1005500015018093140161E070E006960E9480040A
:10056000F89480912A0190912B0178940895F89441
:1005700010922B0110922A0178940895CF93DF9363
:1005800000D0CDB7DEB7F89420912C0130912D0129
:10059000232B09F443C020911601309117013A83AF
:1005A0002983232B09F47EC0E981FA814481558196
:1005B0005093170140931601918380837383628364
:1005C00015821482CF0106960E946004019709F4F7
:1005D00076C0E981FA81369689819A8187599F4F41
:1005E000918B808B938B828BE981FA8115821482A7
:1005F000E0912E01F0912F01309711F454C0FC01CD
:10060000848195810097D9F789819A819583848324
:1006100078940F900F90DF91CF9108952CE032E005
:100620003093A4012093A30129E732E03093110213
:100630002093100226EE32E030937E0220937D025A
:100640001092EB021092EA02EF9AECE6F0E02081C1
:1006500020682083E0E8F0E02081206C2083E1E83E
:10066000F0E020812D602083EFE6F0E02081226021
:10067000208327E831E0309389002093880010928E
:1006800085001092840021E030E030932D0120930A
:100690002C0120911601309117013A832983232BD5
:1006A00009F082CFFFCF29813A8130932F01209327
:1006B0002E0178940F900F90DF91CF910895789448
:1006C000A0911401B0911501ED91FC911197129632
:1006D0008D919C9113970995F894A0911401B09174
:1006E000150115961C921E921497E0911601F09137
:1006F0001701309711F417C0FC0184819581009790
:10070000D9F7B583A48380912E0190912F01009792
:10071000A1F0FC012481358130932F0120932E011B
:100720000E94900256CFB0931701A09316018091BA
:100730002E0190912F01009761F7FFCFF8948091DF
:10074000140190911501FC0115821482A0912E01D3
:10075000B0912F011097B9F0FD0101C0F90124817A
:10076000358121153105D1F79583848314962D9118
:100770003C911597CD0130932F0120932E010E94BB
:10078000900278940895009709F4FFCF20E030E0BC
:10079000F2CF1F920F920FB60F9211242F933F9317
:1007A0004F935F936F937F938F939F93AF93BF9379
:1007B000EF93FF93F89480912A0190912B01019679
:1007C00090932B0180932A0178940E949E03FF91BD
:1007D000EF91BF91AF919F918F917F916F915F91B9
:1007E0004F913F912F910F900FBE0F901F90189532
:1007F0001F920F920FB60F9211242F933F934F9396
:100800005F936F937F938F939F93AF93BF93EF9378
:10081000FF932F9911C0FF91EF91BF91AF919F91DD
:100820008F917F916F915F914F913F912F910F9099
:100830000FBE0F901F9018950E949E03ECCF052EBF
:1008400097FB1EF400940E94360457FD07D00E94C7
:100850003E0407FC03D04EF40C94360450954095AA
:10086000309521953F4F4F4F5F4F0895909580955C
:10087000709561957F4F8F4F9F4F0895A1E21A2E7B
:10088000AA1BBB1BFD010DC0AA1FBB1FEE1FFF1F34
:10089000A217B307E407F50720F0A21BB30BE40B84
:1008A000F50B661F771F881F991F1A9469F76095CB
:1008B0007095809590959B01AC01BD01CF01089585
:1008C000DC012D923D924D925D926D927D928D92C2
:1008D0009D92AD92BD92CD92DD92ED92FD920D93DF
:1008E0001D93CD93DD93FF91EF918DB78D938EB7CF
:1008F0008D938FB78D93ED93FD9388279927099456
:10090000DC01CB0181309105811D2D903D904D90F2
:100910005D906D907D908D909D90AD90BD90CD90AF
:10092000DD90ED90FD900D911D91CD91DD91ED91BA
:10093000FD910D90F894FEBF0FBEEDBFED91FD91BE
:060940000994F894FFCFBA
:1009460051158020111E111B500B411B411F110117
:10095600511F510B32019F010100020003000400E8
:0A0966000500060007000800090064
:00000001FF
