:100000000C9437000C9491040C9400050C946F052B
:100010000C94DE050C944D060C9454000C94B80C12
:100020000C9454000C94660C0C94BC060C942B0796
:100030000C949A070C9409080C9478080C94E7081F
:100040000C9456090C94C5090C94340A0C94A30A18
:100050000C94120B0C94810B0C94F00BB5009D00CA
:10006000A000A300A600A900AC00AF00B2001124BC
:100070001FBECFEFD4E0DEBFCDBF11E0A0E0B1E006
:10008000E0E7F1E202C005900D92A033B107D9F785
:1000900024E0A0E3B1E001C01D92A838B207E1F767
:1000A0000E94F4020C94B6100C940000E1E6F0E01B
:1000B00080E88083108287EB8093E5008FE0809357
:1000C000E70087E08093E60090EC9093E40085B130
:1000D000806D85B98EB18C608EB98FE284B980E570
:1000E0008DB98CE080936B0080ED80936C009DBB9C
:1000F0000895CF93DF93CDB7DEB764970FB6F8942A
:10010000DEBF0FBECDBF94E1EBE1F1E0DE01119661
:1001100001900D929A95E1F76630710508F09DC146
:1001200090E0FC01F197E930F10520F4E25DFF4F2A
:100130000C946F1080E090E01AC082E090E017C04D
:1001400083E090E014C084E090E011C085E090E08E
:100150000EC086E090E00BC087E090E008C088E029
:1001600090E005C089E090E002C081E090E062305C
:10017000710509F489C044F46115710581F061309D
:10018000710509F444C069C16430710509F4F1C016
:100190000CF4B2C06530710509F423C15EC1ACEE48
:1001A000B0E02C91880F991FE1E0F0E0EC0FFD1F0B
:1001B000E80FF91F8081922F907F8F70892B8C938D
:1001C000A1EFB0E02C9180819181807F9927959556
:1001D0008795959587959595879595958795922F70
:1001E000907F892B8C93A6EFB0E08C912081318198
:1001F00022273F70807F832B8C93ABEFB0E08C91F4
:10020000918192959F70807F892B8C9326C1ACEE53
:10021000B0E02C91880F991FE1E0F0E0EC0FFD1F9A
:10022000E80FF91F8081918182959295907F9827A0
:10023000807F9827922F9F70892B8C93A1EFB0E03D
:100240009C9180819F70807F892B8C93A6EFB0E07A
:100250002C918081918188279F70959587959595A0
:1002600087959595879595958795922F9F70892B62
:100270008C93ABEFB0E08C91208131812227307FCD
:100280008F70832B8C93E9C0ADEEB0E02C91880F7A
:10029000991FE1E0F0E0EC0FFD1FE80FF91F8081EE
:1002A000922F907F8F70892B8C93A2EFB0E02C91CE
:1002B00080819181807F99279595879595958795E0
:1002C0009595879595958795922F907F892B8C93FF
:1002D000A7EFB0E08C912081318122273F70807F91
:1002E000832B8C93ACEFB0E08C91918192959F70B1
:1002F000807F892B8C93B1C0ADEEB0E02C91880F3C
:10030000991FE1E0F0E0EC0FFD1FE80FF91F80817D
:10031000918182959295907F9827807F9827922F40
:100320009F70892B8C93A2EFB0E09C9180819F708D
:10033000807F892B8C93A7EFB0E02C9180819181F5
:1003400088279F709595879595958795959587951D
:1003500095958795922F9F70892B8C93ACEFB0E089
:100360008C91208131812227307F8F70832B8C9359
:1003700074C0AEEEB0E02C91880F991FE1E0F0E080
:10038000EC0FFD1FE80FF91F8081922F907F8F7077
:10039000892B8C93A3EFB0E02C9180819181807F99
:1003A0009927959587959595879595958795959591
:1003B0008795922F907F892B8C93A8EFB0E08C913A
:1003C0002081318122273F70807F832B8C93ADEF7A
:1003D000B0E08C91918192959F70807F892B8C9356
:1003E0003CC0AEEEB0E02C91880F991FE1E0F0E048
:1003F000EC0FFD1FE80FF91F808191818295929586
:10040000907F9827807F9827922F9F70892B8C93BD
:10041000A3EFB0E09C9180819F70807F892B8C93AB
:10042000A8EFB0E02C918081918188279F709595ED
:100430008795959587959595879595958795922F0D
:100440009F70892B8C93ADEFB0E08C91208131812E
:100450002227307F8F70832B8C9364960FB6F8948D
:10046000DEBF0FBECDBFDF91CF9108950F931F93D5
:10047000CF93DF93D82F8B0189E2D89F812D112450
:1004800082958F709D2F24E6829F90191124CDECC8
:100490009C9F812D1124869586958695805D0E946E
:1004A0007900B8016F5F7F4FDC9FC12D1124C69585
:1004B000C695C695CC0F8C2F880F880FC80F8D2F2F
:1004C0008C1B805D0E947900DF91CF911F910F916D
:1004D00008951092C50084E38093C400E1ECF0E03D
:1004E000808188618083E2ECF0E080818660808397
:1004F0000895CF92DF92EF92FF920F931F93CF93C5
:10050000DF9300D01F92CDB7DEB79B838A838091A3
:10051000C0008823E4F78091C600898389818330F5
:10052000A1F4C12CD12C0F2EFEE8EF2EFFE0FF2E00
:10053000F02D8E010E5F1F4F20E030E0A90160E03A
:1005400070E0CB010E94580D43C089818C3099F432
:100550000A811B81C12CD12C0F2EF2E5EF2EFFE07A
:10056000FF2EF02D20E030E0A90160E070E0CB012B
:100570000E94580D2DC089818130A1F4C12CD12C4D
:100580000F2EF7E0EF2EF0E1FF2EF02D8E010E5F23
:100590001F4F20E030E0A90160E070E0CB010E9435
:1005A000580D16C08981843099F4C12CD12C0F2E9E
:1005B000F5E3EF2EF0E1FF2EF02D8E010E5F1F4FC1
:1005C00020E030E0A90160E070E0CB010E94580D0E
:1005D0000F900F900F90DF91CF911F910F91FF908F
:1005E000EF90DF90CF9008950E94690280E391E040
:1005F0000E94560040E050E06AE570E180E091E042
:100600000E943B0F80E091E00E947902FBCFCF93E4
:10061000DF9300D000D0CDB7DEB780E090E018C007
:10062000AC014F5F5F4F9A0122953295307F3227A0
:10063000207F3227285E3D4F82959295907F9827A4
:10064000807F9827FC01E85EFD4F31832083CA013B
:100650008E3091052CF31092F9021092F80280E08E
:1006600090E015C0AC014F5F5F4F6DE1649F90015A
:10067000659F300D11242D593E4F689FF001699FF1
:10068000F00D1124ED59FE4F31832083CA018330D0
:10069000910544F31092BB011092BA011A8219829B
:1006A00032C02DE149815A81249FC001259F900DC0
:1006B0001124FC01E759FE4FFC83EB83CF010E941C
:1006C000751020E649815A81249FC001259F900D15
:1006D00011248C599C4FEB81FC81918B808B938BE7
:1006E000828B83EE9EE0968B858B8DE1849FF0015B
:1006F000859FF00D1124ED59FE4F158214824F5F36
:100700005F4F5A83498329813A81243031054CF265
:10071000EBEFF1E0118210821582148213821282B3
:10072000E1E6F0E080E8808310821092850010926C
:10073000840084E08093810081E080936F000F90BB
:100740000F900F900F90DF91CF910895CF93DF938B
:1007500000D0CDB7DEB79A83898380911301909141
:10076000140106960E947510892B59F489819A818B
:10077000909314018093130161E070E006960E944B
:1007800095100F900F90DF91CF9108950F931F93C5
:10079000CF93DF93DC01CB01EB01E881F981C0E06D
:1007A000D0E004C0EF010190F081E02D309779F0A6
:1007B000068117812085318516964D915D916D9149
:1007C0007C91199740175107620773075CF71196E0
:1007D000FC93EE93209721F4FC01B183A08302C027
:1007E000B983A883DF91CF911F910F9108950F9343
:1007F0001F93CF93DF93DC01CB01EB01E881F981FB
:10080000C0E0D0E004C0EF010190F081E02D30970E
:1008100079F0028113812481358112964D915D9189
:100820006D917C91159740175107620773075CF72C
:100830001196FC93EE93209721F4FC01B183A083E1
:1008400002C0B983A883DF91CF911F910F910895C2
:10085000DC01ED91FC911197309759F48FEF809363
:10086000EC008093ED008093EE0081E083BF8895DB
:10087000FCCF208131812D933C93CF010895FB0162
:1008800020813181FC0131832083FB0191838083AE
:100890000895FB0120813181FC0131832083FB011C
:1008A000918380830895DC01ED91FC911197208163
:1008B00031812D933C93CF010895CF93DF93E09145
:1008C0001501F0911601C281D381E0913D01F091B3
:1008D0003E01309719F18091170190911801892BF1
:1008E000E9F0209769F086819781A085B1854E81D6
:1008F0005F8168857985841B950BA60BB70B72F415
:1009000087E191E00E94530465E171E00E9449048F
:1009100080911501909116010E94A603DF91CF915D
:1009200008951F920F920FB60F9211240F931F93E9
:100930002F933F934F935F936F937F938F939F93E7
:10094000AF93BF93EF93FF93809135019091360160
:10095000AC01092E000C660B770B9A0111270027BA
:10096000409184005091850060E070E0402B512B55
:10097000622B732B409337015093380160933901F8
:1009800070933A01B09B1AC00196092E000CAA0B75
:10099000BB0BBC01552744278091840090918500B2
:1009A000A0E0B0E0842B952BA62BB72B80933701CA
:1009B00090933801A0933901B0933A01E091D701A7
:1009C000F091D801309739F060E070E080913F01FC
:1009D0009091400109950E945D04FF91EF91BF91B4
:1009E000AF919F918F917F916F915F914F913F91C7
:1009F0002F911F910F910F900FBE0F901F90189580
:100A00001F920F920FB60F9211240F931F932F93E3
:100A10003F934F935F936F937F938F939F93AF9386
:100A2000BF93EF93FF938091350190913601AC0114
:100A3000092E000C660B770B9A01112700274091B5
:100A400084005091850060E070E0402B512B622BB8
:100A5000732B4093370150933801609339017093A1
:100A60003A01B09B1AC00196092E000CAA0BBB0BD1
:100A7000BC01552744278091840090918500A0E017
:100A8000B0E0842B952BA62BB72B80933701909346
:100A90003801A0933901B0933A01E091D901F09166
:100AA000DA01309739F061E070E080914101909176
:100AB000420109950E945D04FF91EF91BF91AF91B2
:100AC0009F918F917F916F915F914F913F912F9166
:100AD0001F910F910F900FBE0F901F9018951F92AE
:100AE0000F920FB60F9211240F931F932F933F93E2
:100AF0004F935F936F937F938F939F93AF93BF9326
:100B0000EF93FF938091350190913601AC01092E4E
:100B1000000C660B770B9A01112700274091840087
:100B20005091850060E070E0402B512B622B732BBD
:100B300040933701509338016093390170933A0123
:100B4000B09B1AC00196092E000CAA0BBB0BBC016E
:100B5000552744278091840090918500A0E0B0E063
:100B6000842B952BA62BB72B8093370190933801BC
:100B7000A0933901B0933A01E091DB01F091DC01DF
:100B8000309739F062E070E0809143019091440128
:100B900009950E945D04FF91EF91BF91AF919F91E4
:100BA0008F917F916F915F914F913F912F911F9105
:100BB0000F910F900FBE0F901F9018951F920F92DC
:100BC0000FB60F9211240F931F932F933F934F93C0
:100BD0005F936F937F938F939F93AF93BF93EF93A5
:100BE000FF938091350190913601AC01092E000CE4
:100BF000660B770B9A0111270027409184005091D2
:100C0000850060E070E0402B512B622B732B4093EA
:100C10003701509338016093390170933A01B09BCA
:100C20001AC00196092E000CAA0BBB0BBC0155275C
:100C300044278091840090918500A0E0B0E0842B4F
:100C4000952BA62BB72B8093370190933801A09357
:100C50003901B0933A01E091DD01F091DE01309766
:100C600039F063E070E0809145019091460109956B
:100C70000E945D04FF91EF91BF91AF919F918F9181
:100C80007F916F915F914F913F912F911F910F91A4
:100C90000F900FBE0F901F9018951F920F920FB6D6
:100CA0000F9211240F931F932F933F934F935F93B2
:100CB0006F937F938F939F93AF93BF93EF93FF9324
:100CC0008091350190913601AC01092E000C660B24
:100CD000770B9A01112700274091840050918500DD
:100CE00060E070E0402B512B622B732B4093370157
:100CF000509338016093390170933A01B09B1AC048
:100D00000196092E000CAA0BBB0BBC0155274427EA
:100D10008091840090918500A0E0B0E0842B952B19
:100D2000A62BB72B8093370190933801A0933901FC
:100D3000B0933A01E091DF01F091E001309739F092
:100D400064E070E0809147019091480109950E940C
:100D50005D04FF91EF91BF91AF919F918F917F9132
:100D60006F915F914F913F912F911F910F910F9034
:100D70000FBE0F901F9018951F920F920FB60F92F3
:100D800011240F931F932F933F934F935F936F9370
:100D90007F938F939F93AF93BF93EF93FF93809134
:100DA000350190913601AC01092E000C660B770BD2
:100DB0009A0111270027409184005091850060E03E
:100DC00070E0402B512B622B732B409337015093D3
:100DD00038016093390170933A01B09B1AC00196B3
:100DE000092E000CAA0BBB0BBC0155274427809190
:100DF000840090918500A0E0B0E0842B952BA62B79
:100E0000B72B8093370190933801A0933901B093A9
:100E10003A01E091E101F091E201309739F065E0AB
:100E200070E08091490190914A0109950E945D040A
:100E3000FF91EF91BF91AF919F918F917F916F91B2
:100E40005F914F913F912F911F910F910F900FBE86
:100E50000F901F9018951F920F920FB60F921124AA
:100E60000F931F932F933F934F935F936F937F93B2
:100E70008F939F93AF93BF93EF93FF93809135012F
:100E800090913601AC01092E000C660B770B9A018C
:100E900011270027409184005091850060E070E0A8
:100EA000402B512B622B732B409337015093380109
:100EB0006093390170933A01B09B1AC00196092ED4
:100EC000000CAA0BBB0BBC01552744278091840062
:100ED00090918500A0E0B0E0842B952BA62BB72B3A
:100EE0008093370190933801A0933901B0933A0170
:100EF000E091E301F091E401309739F066E070E0B1
:100F000080914B0190914C0109950E945D04FF91E5
:100F1000EF91BF91AF919F918F917F916F915F9171
:100F20004F913F912F911F910F910F900FBE0F90F6
:100F30001F9018951F920F920FB60F9211240F93C6
:100F40001F932F933F934F935F936F937F938F9351
:100F50009F93AF93BF93EF93FF938091350190914F
:100F60003601AC01092E000C660B770B9A01112794
:100F70000027409184005091850060E070E0402B94
:100F8000512B622B732B40933701509338016093A0
:100F9000390170933A01B09B1AC00196092E000CDA
:100FA000AA0BBB0BBC01552744278091840090916C
:100FB0008500A0E0B0E0842B952BA62BB72B809367
:100FC000370190933801A0933901B0933A01E09131
:100FD000E501F091E601309739F067E070E080912B
:100FE0004D0190914E0109950E945D04FF91EF9192
:100FF000BF91AF919F918F917F916F915F914F9131
:101000003F912F911F910F910F900FBE0F901F9046
:1010100018951F920F920FB60F9211240F931F93E2
:101020002F933F934F935F936F937F938F939F93F0
:10103000AF93BF93EF93FF93809135019091360169
:10104000AC01092E000C660B770B9A0111270027C3
:10105000409184005091850060E070E0402B512B5E
:10106000622B732B40933701509338016093390101
:1010700070933A01B09B1AC00196092E000CAA0B7E
:10108000BB0BBC01552744278091840090918500BB
:10109000A0E0B0E0842B952BA62BB72B80933701D3
:1010A00090933801A0933901B0933A01E091E701A0
:1010B000F091E801309739F068E070E080914F01DD
:1010C0009091500109950E945D04FF91EF91BF91AD
:1010D000AF919F918F917F916F915F914F913F91D0
:1010E0002F911F910F910F900FBE0F901F90189589
:1010F0001F920F920FB60F9211240F931F932F93ED
:101100003F934F935F936F937F938F939F93AF938F
:10111000BF93EF93FF938091350190913601AC011D
:10112000092E000C660B770B9A01112700274091BE
:1011300084005091850060E070E0402B512B622BC1
:10114000732B4093370150933801609339017093AA
:101150003A01B09B1AC00196092E000CAA0BBB0BDA
:10116000BC01552744278091840090918500A0E020
:10117000B0E0842B952BA62BB72B8093370190934F
:101180003801A0933901B0933A01E091E901F0915F
:10119000EA01309739F069E070E080915101909157
:1011A000520109950E945D04FF91EF91BF91AF91AB
:1011B0009F918F917F916F915F914F913F912F916F
:1011C0001F910F910F900FBE0F901F9018951F92B7
:1011D0000F920FB60F9211240F931F932F933F93EB
:1011E0004F935F936F937F938F939F93AF93BF932F
:1011F000EF93FF938091350190913601AC01092E58
:10120000000C660B770B9A01112700274091840090
:101210005091850060E070E0402B512B622B732BC6
:1012200040933701509338016093390170933A012C
:10123000B09B1AC00196092E000CAA0BBB0BBC0177
:10124000552744278091840090918500A0E0B0E06C
:10125000842B952BA62BB72B8093370190933801C5
:10126000A0933901B0933A01E091EB01F091EC01C8
:10127000309739F06AE070E0809153019091540109
:1012800009950E945D04FF91EF91BF91AF919F91ED
:101290008F917F916F915F914F913F912F911F910E
:1012A0000F910F900FBE0F901F9018951F920F92E5
:1012B0000FB60F9211240F931F932F933F934F93C9
:1012C0005F936F937F938F939F93AF93BF93EF93AE
:1012D000FF938091350190913601AC01092E000CED
:1012E000660B770B9A0111270027409184005091DB
:1012F000850060E070E0402B512B622B732B4093F4
:101300003701509338016093390170933A01B09BD3
:101310001AC00196092E000CAA0BBB0BBC01552765
:1013200044278091840090918500A0E0B0E0842B58
:10133000952BA62BB72B8093370190933801A09360
:101340003901B0933A01E091ED01F091EE0130974F
:1013500039F06BE070E0809155019091560109954C
:101360000E945D04FF91EF91BF91AF919F918F918A
:101370007F916F915F914F913F912F911F910F91AD
:101380000F900FBE0F901F9018951F920F920FB6DF
:101390000F9211240F931F932F933F934F935F93BB
:1013A0006F937F938F939F93AF93BF93EF93FF932D
:1013B0008091350190913601AC01092E000C660B2D
:1013C000770B9A01112700274091840050918500E6
:1013D00060E070E0402B512B622B732B4093370160
:1013E000509338016093390170933A01B09B1AC051
:1013F0000196092E000CAA0BBB0BBC0155274427F4
:101400008091840090918500A0E0B0E0842B952B22
:10141000A62BB72B8093370190933801A093390105
:10142000B0933A01E091EF01F091F001309739F07B
:101430006CE070E0809157019091580109950E94ED
:101440005D04FF91EF91BF91AF919F918F917F913B
:101450006F915F914F913F912F911F910F910F903D
:101460000FBE0F901F9018951F920F920FB60F92FC
:1014700011240F931F932F933F934F935F936F9379
:101480007F938F939F93AF93BF93EF93FF9380913D
:10149000350190913601AC01092E000C660B770BDB
:1014A0009A0111270027409184005091850060E047
:1014B00070E0402B512B622B732B409337015093DC
:1014C00038016093390170933A01B09B1AC00196BC
:1014D000092E000CAA0BBB0BBC0155274427809199
:1014E000840090918500A0E0B0E0842B952BA62B82
:1014F000B72B8093370190933801A0933901B093B3
:101500003A01E091F101F091F201309739F06DE08C
:1015100070E08091590190915A0109950E945D04F3
:10152000FF91EF91BF91AF919F918F917F916F91BB
:101530005F914F913F912F911F910F910F900FBE8F
:101540000F901F9018951F920F920FB60F921124B3
:101550000F931F932F933F934F935F936F937F93BB
:101560008F939F93AF93BF93EF93FF938091350138
:1015700090913601AC01092E000C660B770B9A0195
:1015800011270027409184005091850060E070E0B1
:10159000402B512B622B732B409337015093380112
:1015A0006093390170933A01B09B1AC00196092EDD
:1015B000000CAA0BBB0BBC0155274427809184006B
:1015C00090918500A0E0B0E0842B952BA62BB72B43
:1015D0008093370190933801A0933901B0933A0179
:1015E000E091F301F091F401309739F06EE070E092
:1015F00080915B0190915C0109950E945D04FF91CF
:10160000EF91BF91AF919F918F917F916F915F917A
:101610004F913F912F911F910F910F900FBE0F90FF
:101620001F9018951F920F920FB60F9211240F93CF
:101630001F932F933F934F935F936F937F938F935A
:101640009F93AF93BF93EF93FF9380913501909158
:101650003601AC01092E000C660B770B9A0111279D
:101660000027409184005091850060E070E0402B9D
:10167000512B622B732B40933701509338016093A9
:10168000390170933A01B09B1AC00196092E000CE3
:10169000AA0BBB0BBC015527442780918400909175
:1016A0008500A0E0B0E0842B952BA62BB72B809370
:1016B000370190933801A0933901B0933A01E0913A
:1016C000F501F091F601309739F06FE070E080910C
:1016D0005D0190915E0109950E945D04FF91EF917B
:1016E000BF91AF919F918F917F916F915F914F913A
:1016F0003F912F911F910F910F900FBE0F901F9050
:1017000018951F920F920FB60F9211240F931F93EB
:101710002F933F934F935F936F937F938F939F93F9
:10172000AF93BF93EF93FF93809135019091360172
:10173000AC01092E000C660B770B9A0111270027CC
:10174000409184005091850060E070E0402B512B67
:10175000622B732B4093370150933801609339010A
:1017600070933A01B09B1AC00196092E000CAA0B87
:10177000BB0BBC01552744278091840090918500C4
:10178000A0E0B0E0842B952BA62BB72B80933701DC
:1017900090933801A0933901B0933A01E091F70199
:1017A000F091F801309739F060E170E080915F01CD
:1017B0009091600109950E945D04FF91EF91BF91A6
:1017C000AF919F918F917F916F915F914F913F91D9
:1017D0002F911F910F910F900FBE0F901F90189592
:1017E0001F920F920FB60F9211240F931F932F93F6
:1017F0003F934F935F936F937F938F939F93AF9399
:10180000BF93EF93FF938091350190913601AC0126
:10181000092E000C660B770B9A01112700274091C7
:1018200084005091850060E070E0402B512B622BCA
:10183000732B4093370150933801609339017093B3
:101840003A01B09B1AC00196092E000CAA0BBB0BE3
:10185000BC01552744278091840090918500A0E029
:10186000B0E0842B952BA62BB72B80933701909358
:101870003801A0933901B0933A01E091F901F09158
:10188000FA01309739F061E170E080916101909147
:10189000620109950E945D04FF91EF91BF91AF91A4
:1018A0009F918F917F916F915F914F913F912F9178
:1018B0001F910F910F900FBE0F901F9018950E94CF
:1018C0005D04789481E083BF8895FCCF1F920F92CE
:1018D0000FB60F9211242F933F934F935F936F9303
:1018E0007F938F939F93EF93FF9380913501909116
:1018F000360101969093360180933501E0913B01CA
:10190000F0913C01309701F14281538164817581EE
:1019100086179707C9F4CA01209184003091850089
:10192000421B530B4130510529F480918400909162
:10193000850001969093890080938800EFE6F0E09F
:1019400080818260808305C0EFE6F0E080818D7F3A
:101950008083FF91EF919F918F917F916F915F9124
:101960004F913F912F910F900FBE0F901F901895A0
:101970001F920F920FB60F921124CF92DF92EF9227
:10198000FF922F933F934F935F936F937F938F9328
:101990009F93AF93BF93EF93FF9380913501909105
:1019A00036016C01092E000CEE08FF087601DD24DB
:1019B000CC24409184005091850060E070E0C42AFE
:1019C000D52AE62AF72AB09B1EC06C012FEFC21A57
:1019D000D20A0D2C000CEE08FF08D60199278827A3
:1019E000C0908400D0908500E12CF12CC82AD92A1F
:1019F000EA2AFB2A08C08BE391E00E9428046DE3E9
:101A000071E00E94C603E0913B01F0913C013097E8
:101A100069F082819381A481B5818C199D09AE09F9
:101A2000BF09181619061A061B062CF7309721F164
:101A300082819381A481B581209135013091360155
:101A40002A173B07C9F49C014091840050918500FE
:101A5000841B950B019731F420918400309185000F
:101A60002F5F3F4F3093890020938800EFE6F0E02E
:101A700080818260808305C0EFE6F0E080818D7F09
:101A800080830E945D04FF91EF91BF91AF919F9180
:101A90008F917F916F915F914F913F912F91FF9027
:101AA000EF90DF90CF900F900FBE0F901F90189582
:101AB0003F924F925F926F927F928F929F92AF92DE
:101AC000BF92CF92DF92EF92FF920F931F93CF932B
:101AD000DF932B013C0149015A018FB78078382EE2
:101AE000F89489E191E00E942804EC011B870A87A1
:101AF000FD86EC86DF86CE86332061F0E09113010F
:101B0000F09114010280F381E02D82819381A48100
:101B1000B58108C08091370190913801A0913901B9
:101B2000B0913A01480E591E6A1E7B1E4A825B82A2
:101B30006C827D82181419041A041B0444F00F2EC1
:101B400088248A94982CA82CFFE7BF2EF02D840CB3
:101B5000951CA61CB71C8E829F82A886B9862091F0
:101B6000350130913601C901032E000CAA0BBB0BC5
:101B7000DC0199278827409184005091850060E01E
:101B800070E0842B952BA62BB72BB09B13C0C901FB
:101B90000196092E000CAA0BBB0BDC0199278827A4
:101BA000409184005091850060E070E0842B952B7B
:101BB000A62BB72B481A590A6A0A7B0A1414150473
:101BC00016041704ACF56BE371E0CE010E94F70335
:101BD000E0913B01F0913C01309721F182819381AA
:101BE000A481B58120913501309136012A173B0738
:101BF000C9F49C014091840050918500841B950B91
:101C0000019731F420918400309185002F5F3F4F80
:101C10003093890020938800EFE6F0E080818260B5
:101C2000808339C0EFE6F0E080818D7F808333C010
:101C30006DE371E0CE010E94C603332061F1809113
:101C4000170190911801892B31F1E0913D01F0913C
:101C50003E0186819781A085B185E0911501F091C3
:101C600016010280F381E02D4681578160857185E0
:101C7000841B950BA60BB70B72F487E191E00E94D1
:101C8000530465E171E00E9449048091150190912F
:101C900016010E94A603332009F07894CE01DF914B
:101CA000CF911F910F91FF90EF90DF90CF90BF9059
:101CB000AF909F908F907F906F905F904F903F90EC
:101CC0000895CF92DF92EF92FF920F931F93CF93DD
:101CD000DF93EC017B016A011FB71078F894A881AB
:101CE000B981109719F435C0A081B1811496ED9196
:101CF000FC9115973097C1F7209113013091140191
:101D0000A217B30711F0111107C0112309F44AC03B
:101D100078948FEF9FEF4EC08A819B81009719F0D6
:101D2000FC01158214823B832A83F901D583C48385
:101D3000CD010E94A603E0911301F091140182816C
:101D40009381892B31F4112381F1789480E090E024
:101D500031C08091130190911401998388831123DC
:101D600029F08A819B81019709F07894B601CE0110
:101D7000F7010995F82E092F8FB7F8941982188268
:101D80008A819B818230910538F01B821A82FC0186
:101D9000158214820E94A603112351F078948F2D8E
:101DA000902F08C08FEF9FEF05C080E090E002C049
:101DB0008F2D902FDF91CF911F910F91FF90EF907A
:101DC000DF90CF90089500911301109114018DE3DD
:101DD00091E00E942804EC01F801938382837894B7
:101DE0006C857D854E855F858A859B850E94610E09
:101DF0008FB7F89469E171E0CE010E943F04E09151
:101E00001501F09116010190F081E02DC281D3817E
:101E1000E0913D01F0913E013097A1F0209799F2B9
:101E200086819781A085B1854E815F81688579859E
:101E3000841B950BA60BB70B181619061A061B0662
:101E40000CF0C1CF85E191E00E94530467E171E09D
:101E50000E944904A0911501B091160102C0A08111
:101E6000B1811496ED91FC9115973097C1F7CD0192
:101E70000E94A603A8CF8C017B016A018FB7F8945A
:101E80000E9407037894E114F10441F020E030E06F
:101E9000A90160E070E0CB010E94580D8FB7F89463
:101EA0000E945F0CCF92DF92EF92FF920F931F93ED
:101EB000CF93DF93EC018D859E8501979E878D875B
:101EC0008F8598890196988B8F87C12CD12C0F2EE6
:101ED000FAECEF2EFFE0FF2EF02D8E0120E030E037
:101EE000A9016AE572E682E090E00E94580D0F2E8B
:101EF000F2EFEF2EFFE0FF2EF02D20E030E0A90101
:101F000060E070E0CB010E94580DDF91CF911F91EE
:101F10000F91FF90EF90DF90CF900895CF92DF92D6
:101F2000EF92FF920F931F93CF93DF93EC018B857A
:101F30009C8501979C878B878F8598890196988BC4
:101F40008F87C12CD12C0F2EFAECEF2EFFE0FF2E45
:101F5000F02D8E0120E030E0A9016AE572E682E012
:101F600090E00E94580D0F2EF2EFEF2EFFE0FF2EB3
:101F7000F02D20E030E0A90160E070E0CB010E948C
:101F8000580DDF91CF911F910F91FF90EF90DF904F
:101F9000CF900895CF92DF92EF92FF920F931F930D
:101FA000FC012785308912161306ACF48C012150F0
:101FB0003109308B2787C12CD12C0F2EF2EFEF2E59
:101FC000FFE0FF2EF02D20E030E0A90160E070E09E
:101FD000CB010E94580D1F910F91FF90EF90DF9061
:101FE000CF900895CF93DF93EC0160E070E08D8592
:101FF0000E94360262E070E08F850E94360264E043
:1020000070E08B850E943602DF91CF910895CF92C8
:10201000DF92EF92FF920F931F93CF93DF93EC0128
:1020200061E070E081E390E00E9479008B859C85FF
:1020300001969C878B87C12CD12C0F2EF2EFEF2EAF
:10204000FFE0FF2EF02D8E0120E030E0A90160E0DE
:1020500070E0CB010E94580DDF91CF911F910F913D
:10206000FF90EF90DF90CF900895CF92DF92EF92A4
:10207000FF920F931F93FC01258536852F5F3F4FFD
:1020800036872587C12CD12C0F2EF2EFEF2EFFE0E3
:10209000FF2EF02D8C0120E030E0A90160E070E01F
:1020A000CB010E94580D1F910F91FF90EF90DF9090
:1020B000CF900895CF93DF93EC0160E070E08D85C1
:1020C0000E94360262E070E08F850E94360264E072
:1020D00070E08B850E943602DF91CF910895EE0F5C
:1020E000FF1F0590F491E02D0994DC012D923D92A3
:1020F0004D925D926D927D928D929D92AD92BD9228
:10210000CD92DD92ED92FD920D931D93CD93DD93D3
:10211000FF91EF918DB78D938EB78D938FB78D9380
:10212000ED93FD93882799270994DC01CB01813039
:102130009105811D2D903D904D905D906D907D900D
:102140008D909D90AD90BD90CD90DD90ED90FD90E7
:102150000D911D91CD91DD91ED91FD910D90F89432
:10216000FEBF0FBEEDBFED91FD910994F894FFCF36
:10217000000000003001010000000000000000002D
:10218000000000FB01FB01630118025115802011C2
:102190001E111B500B411B411F1101511F510B0000
:00000001FF
