:100000000C9437000C94EF040C945E050C94CD0511
:100010000C943C060C94AB060C9454000C94160DF6
:100020000C9454000C94C40C0C941A070C9489077B
:100030000C94F8070C9467080C94D6080C944509A6
:100040000C94B4090C94230A0C94920A0C94010B9E
:100050000C94700B0C94DF0B0C944E0C64014C014F
:100060004F015201550158015B015E0161011124EC
:100070001FBECFEFD4E0DEBFCDBF11E0A0E0B1E006
:10008000EEE2F9E202C005900D92AC31B107D9F76A
:1000900024E0ACE1B1E001C01D92AA37B207E1F75C
:1000A0000E9428030C9495140C940000AF92BF9208
:1000B000CF92DF92EF92FF920F931F93CF935C0149
:1000C0000E945811C82F81FF25C0F50104811581B8
:1000D000C12CD12C0F2EF2EFEF2EF0E1FF2EF02DE0
:1000E00020E030E0A90160E070E0CB010E94B60D95
:1000F000F501048115810F2EFBE1EF2EF1E1FF2EBA
:10010000F02D20E030E0A9016AE572E682E090E09F
:100110000E94B60DC3FF25C0F50104811581C12CD5
:10012000D12C0F2EF9ECEF2EF0E1FF2EF02D20E078
:1001300030E0A90160E070E0CB010E94B60DF5014E
:10014000048115810F2EFBE1EF2EF1E1FF2EF02D42
:1001500020E030E0A9016AE572E682E090E00E94CA
:10016000B60DC0FF13C0F50104811581C12CD12C3F
:100170000F2EFFE7EF2EF0E1FF2EF02D20E030E014
:10018000A90160E070E0CB010E94B60DC2FF13C070
:10019000F50104811581C12CD12C0F2EF4EAEF2E2C
:1001A000F0E1FF2EF02D20E030E0A90160E070E0EA
:1001B000CB010E94B60DCF911F910F91FF90EF9050
:1001C000DF90CF90BF90AF900895CF92DF92EF92E3
:1001D000FF920F931F93FC0104811581C12CD12C38
:1001E0000F2EFBECEF2EFFE0FF2EF02D20E030E095
:1001F000A90160E070E0CB010E94B60D1F910F9144
:10020000FF90EF90DF90CF900895E1E6F0E080E876
:100210008083108287EB8093E5008FE08093E70076
:1002200087E08093E60090EC9093E40085B1806DC8
:1002300085B98EB18C608EB98FE284B980E58DB9B5
:100240008CE080936B0080ED80936C009DBB0895E3
:10025000CF93DF93CDB7DEB764970FB6F894DEBFC8
:100260000FBECDBF94E1E8E0F1E0DE011196019010
:100270000D929A95E1F76630710508F09DC190E006
:10028000FC01F197E930F10520F4E25DFF4F0C9499
:10029000701180E090E01AC082E090E017C083E027
:1002A00090E014C084E090E011C085E090E00EC0C2
:1002B00086E090E00BC087E090E008C088E090E026
:1002C00005C089E090E002C081E090E062307105F5
:1002D00009F489C044F46115710581F0613071053C
:1002E00009F444C069C16430710509F4F1C00CF42B
:1002F000B2C06530710509F423C15EC1ACEEB0E057
:100300002C91880F991FE1E0F0E0EC0FFD1FE80F42
:10031000F91F8081922F907F8F70892B8C93A1EF92
:10032000B0E02C9180819181807F99279595879568
:10033000959587959595879595958795922F907F1B
:10034000892B8C93A6EFB0E08C91208131812227FC
:100350003F70807F832B8C93ABEFB0E08C919181C9
:1003600092959F70807F892B8C9326C1ACEEB0E074
:100370002C91880F991FE1E0F0E0EC0FFD1FE80FD2
:10038000F91F8081918182959295907F9827807F37
:100390009827922F9F70892B8C93A1EFB0E09C91AE
:1003A00080819F70807F892B8C93A6EFB0E02C9189
:1003B0008081918188279F709595879595958795E0
:1003C0009595879595958795922F9F70892B8C93FE
:1003D000ABEFB0E08C91208131812227307F8F708C
:1003E000832B8C93E9C0ADEEB0E02C91880F991F60
:1003F000E1E0F0E0EC0FFD1FE80FF91F8081922F84
:10040000907F8F70892B8C93A2EFB0E02C9180812C
:100410009181807F99279595879595958795959555
:10042000879595958795922F907F892B8C93A7EF31
:10043000B0E08C912081318122273F70807F832B17
:100440008C93ACEFB0E08C91918192959F70807FFE
:10045000892B8C93B1C0ADEEB0E02C91880F991F21
:10046000E1E0F0E0EC0FFD1FE80FF91F80819181C2
:1004700082959295907F9827807F9827922F9F70E2
:10048000892B8C93A2EFB0E09C9180819F70807F3C
:10049000892B8C93A7EFB0E02C91808191818827E4
:1004A0009F70959587959595879595958795959541
:1004B0008795922F9F70892B8C93ACEFB0E08C9135
:1004C000208131812227307F8F70832B8C9374C0E1
:1004D000AEEEB0E02C91880F991FE1E0F0E0EC0F58
:1004E000FD1FE80FF91F8081922F907F8F70892B5D
:1004F0008C93A3EFB0E02C9180819181807F99272C
:1005000095958795959587959595879595958795D3
:10051000922F907F892B8C93A8EFB0E08C91208153
:10052000318122273F70807F832B8C93ADEFB0E029
:100530008C91918192959F70807F892B8C933CC088
:10054000AEEEB0E02C91880F991FE1E0F0E0EC0FE7
:10055000FD1FE80FF91F8081918182959295907F10
:100560009827807F9827922F9F70892B8C93A3EFD9
:10057000B0E09C9180819F70807F892B8C93A8EF45
:10058000B0E02C918081918188279F709595879507
:10059000959587959595879595958795922F9F70B9
:1005A000892B8C93ADEFB0E08C9120813181222793
:1005B000307F8F70832B8C9364960FB6F894DEBFD8
:1005C0000FBECDBFDF91CF9108950F931F93CF93AF
:1005D000DF93D82F8B0189E2D89F812D112482953A
:1005E0008F709D2F24E6829F90191124CDEC9C9F43
:1005F000812D1124869586958695805D0E9428011F
:10060000B8016F5F7F4FDC9FC12D1124C695C69541
:10061000C695CC0F8C2F880F880FC80F8D2F8C1B81
:10062000805D0E942801DF91CF911F910F91089565
:100630001092C50084E38093C400E1ECF0E0808177
:1006400088698083E2ECF0E0808186608083089591
:10065000CF93DF93CDB7DEB766970FB6F894DEBFC2
:100660000FBECDBF0E9418038CE191E00E940501EE
:10067000CE01019620E1FC0111922A95E9F721E0D3
:1006800030E03E832D831A8A198A1C8A1B8A9E8B2E
:100690008D8B0E94431148E066E570E0CE014196E3
:1006A0000E94990F40E050E065EE70E0CE01419667
:1006B0000E94B40F80E090E066960FB6F894DEBF1B
:1006C0000FBECDBFDF91CF910895CF93DF9300D0C0
:1006D00000D0CDB7DEB780E090E018C0AC014F5F2E
:1006E0005F4F9A0122953295307F3227207F322743
:1006F0002C5F3D4F82959295907F9827807F982719
:10070000FC01EC5FFD4F31832083CA018E309105DF
:100710002CF31092E5021092E40280E090E015C004
:10072000AC014F5F5F4F6DE1649F9001659F300D9D
:100730001124215B3E4F689FF001699FF00D112449
:10074000E15BFE4F31832083CA018330910544F37E
:100750001092A7011092A6011A82198232C02DE1CF
:1007600049815A81249FC001259F900D1124FC01CD
:10077000EB5AFE4FFC83EB83CF010E94761120E6FB
:1007800049815A81249FC001259F900D1124805BCF
:100790009C4FEB81FC81918B808B938B828B81E4CE
:1007A0009FE0968B858B8DE1849FF001859FF00DF6
:1007B0001124E15BFE4F158214824F5F5F4F5A8315
:1007C000498329813A81243031054CF2E7EEF1E08A
:1007D000118210821582148213821282E1E6F0E007
:1007E00080E880831082109285001092840084E05B
:1007F0008093810081E080936F000F900F900F90A5
:100800000F90DF91CF910895CF93DF9300D0CDB7B4
:10081000DEB79A8389838091000190910101069649
:100820000E947611892B59F489819A819093010154
:100830008093000161E070E006960E9496110F908F
:100840000F90DF91CF9108950F931F93CF93DF9374
:10085000DC01CB01EB01E881F981C0E0D0E004C00C
:10086000EF010190F081E02D309779F0068117813A
:100870002085318516964D915D916D917C911997EA
:1008800040175107620773075CF71196FC93EE93CC
:10089000209721F4FC01B183A08302C0B983A8830F
:1008A000DF91CF911F910F9108950F931F93CF93D5
:1008B000DF93DC01CB01EB01E881F981C0E0D0E0FE
:1008C00004C0EF010190F081E02D309779F00281B2
:1008D00013812481358112964D915D916D917C91AA
:1008E000159740175107620773075CF71196FC9341
:1008F000EE93209721F4FC01B183A08302C0B98359
:10090000A883DF91CF911F910F910895DC01ED91A4
:10091000FC911197309759F48FEF8093EC008093FE
:10092000ED008093EE0081E083BF8895FCCF2081AD
:1009300031812D933C93CF010895FB0120813181BA
:10094000FC0131832083FB01918380830895FB01A7
:1009500020813181FC0131832083FB0191838083DD
:100960000895DC01ED91FC911197208131812D9347
:100970003C93CF010895CF93DF93E0910201F09172
:100980000301C281D381E0912901F0912A013097BE
:1009900019F18091040190910501892BE9F02097CC
:1009A00069F086819781A085B1854E815F816885D8
:1009B0007985841B950BA60BB70B72F484E091E04C
:1009C0000E94B10462E071E00E94A70480910201DC
:1009D000909103010E940404DF91CF9108951F922A
:1009E0000F920FB60F9211240F931F932F933F93E3
:1009F0004F935F936F937F938F939F93AF93BF9327
:100A0000EF93FF938091210190912201AC01092E77
:100A1000000C660B770B9A01112700274091840088
:100A20005091850060E070E0402B512B622B732BBE
:100A30004093230150932401609325017093260174
:100A4000B09B1AC00196092E000CAA0BBB0BBC016F
:100A5000552744278091840090918500A0E0B0E064
:100A6000842B952BA62BB72B8093230190932401E5
:100A7000A0932501B0932601E091C301F091C40138
:100A8000309739F060E070E080912B0190912C015B
:100A900009950E94BB04FF91EF91BF91AF919F9187
:100AA0008F917F916F915F914F913F912F911F9106
:100AB0000F910F900FBE0F901F9018951F920F92DD
:100AC0000FB60F9211240F931F932F933F934F93C1
:100AD0005F936F937F938F939F93AF93BF93EF93A6
:100AE000FF938091210190912201AC01092E000C0D
:100AF000660B770B9A0111270027409184005091D3
:100B0000850060E070E0402B512B622B732B4093EB
:100B10002301509324016093250170932601B09B1B
:100B20001AC00196092E000CAA0BBB0BBC0155275D
:100B300044278091840090918500A0E0B0E0842B50
:100B4000952BA62BB72B8093230190932401A09380
:100B50002501B0932601E091C501F091C6013097BF
:100B600039F061E070E080912D0190912E0109959E
:100B70000E94BB04FF91EF91BF91AF919F918F9124
:100B80007F916F915F914F913F912F911F910F91A5
:100B90000F900FBE0F901F9018951F920F920FB6D7
:100BA0000F9211240F931F932F933F934F935F93B3
:100BB0006F937F938F939F93AF93BF93EF93FF9325
:100BC0008091210190912201AC01092E000C660B4D
:100BD000770B9A01112700274091840050918500DE
:100BE00060E070E0402B512B622B732B409323016C
:100BF000509324016093250170932601B09B1AC085
:100C00000196092E000CAA0BBB0BBC0155274427EB
:100C10008091840090918500A0E0B0E0842B952B1A
:100C2000A62BB72B8093230190932401A093250139
:100C3000B0932601E091C701F091C801309739F0D7
:100C400062E070E080912F019091300109950E943F
:100C5000BB04FF91EF91BF91AF919F918F917F91D5
:100C60006F915F914F913F912F911F910F910F9035
:100C70000FBE0F901F9018951F920F920FB60F92F4
:100C800011240F931F932F933F934F935F936F9371
:100C90007F938F939F93AF93BF93EF93FF93809135
:100CA000210190912201AC01092E000C660B770BFB
:100CB0009A0111270027409184005091850060E03F
:100CC00070E0402B512B622B732B409323015093E8
:100CD00024016093250170932601B09B1AC00196F0
:100CE000092E000CAA0BBB0BBC0155274427809191
:100CF000840090918500A0E0B0E0842B952BA62B7A
:100D0000B72B8093230190932401A0932501B093E6
:100D10002601E091C901F091CA01309739F063E0F2
:100D200070E0809131019091320109950E94BB04DD
:100D3000FF91EF91BF91AF919F918F917F916F91B3
:100D40005F914F913F912F911F910F910F900FBE87
:100D50000F901F9018951F920F920FB60F921124AB
:100D60000F931F932F933F934F935F936F937F93B3
:100D70008F939F93AF93BF93EF93FF938091210144
:100D800090912201AC01092E000C660B770B9A01A1
:100D900011270027409184005091850060E070E0A9
:100DA000402B512B622B732B409323015093240132
:100DB0006093250170932601B09B1AC00196092EFD
:100DC000000CAA0BBB0BBC01552744278091840063
:100DD00090918500A0E0B0E0842B952BA62BB72B3B
:100DE0008093230190932401A0932501B0932601C1
:100DF000E091CB01F091CC01309739F064E070E0E4
:100E0000809133019091340109950E94BB04FF91B8
:100E1000EF91BF91AF919F918F917F916F915F9172
:100E20004F913F912F911F910F910F900FBE0F90F7
:100E30001F9018951F920F920FB60F9211240F93C7
:100E40001F932F933F934F935F936F937F938F9352
:100E50009F93AF93BF93EF93FF9380912101909164
:100E60002201AC01092E000C660B770B9A011127A9
:100E70000027409184005091850060E070E0402B95
:100E8000512B622B732B40932301509324016093C9
:100E9000250170932601B09B1AC00196092E000C03
:100EA000AA0BBB0BBC01552744278091840090916D
:100EB0008500A0E0B0E0842B952BA62BB72B809368
:100EC000230190932401A0932501B0932601E09182
:100ED000CD01F091CE01309739F065E070E080915E
:100EE00035019091360109950E94BB04FF91EF9165
:100EF000BF91AF919F918F917F916F915F914F9132
:100F00003F912F911F910F910F900FBE0F901F9047
:100F100018951F920F920FB60F9211240F931F93E3
:100F20002F933F934F935F936F937F938F939F93F1
:100F3000AF93BF93EF93FF93809121019091220192
:100F4000AC01092E000C660B770B9A0111270027C4
:100F5000409184005091850060E070E0402B512B5F
:100F6000622B732B4093230150932401609325013E
:100F700070932601B09B1AC00196092E000CAA0B93
:100F8000BB0BBC01552744278091840090918500BC
:100F9000A0E0B0E0842B952BA62BB72B80932301E8
:100FA00090932401A0932501B0932601E091CF01F5
:100FB000F091D001309739F066E070E08091370110
:100FC0009091380109950E94BB04FF91EF91BF9168
:100FD000AF919F918F917F916F915F914F913F91D1
:100FE0002F911F910F910F900FBE0F901F9018958A
:100FF0001F920F920FB60F9211240F931F932F93EE
:101000003F934F935F936F937F938F939F93AF9390
:10101000BF93EF93FF938091210190912201AC0146
:10102000092E000C660B770B9A01112700274091BF
:1010300084005091850060E070E0402B512B622BC2
:10104000732B4093230150932401609325017093E7
:101050002601B09B1AC00196092E000CAA0BBB0BEF
:10106000BC01552744278091840090918500A0E021
:10107000B0E0842B952BA62BB72B80932301909364
:101080002401A0932501B0932601E091D101F091B4
:10109000D201309739F067E070E08091390190918A
:1010A0003A0109950E94BB04FF91EF91BF91AF9166
:1010B0009F918F917F916F915F914F913F912F9170
:1010C0001F910F910F900FBE0F901F9018951F92B8
:1010D0000F920FB60F9211240F931F932F933F93EC
:1010E0004F935F936F937F938F939F93AF93BF9330
:1010F000EF93FF938091210190912201AC01092E81
:10110000000C660B770B9A01112700274091840091
:101110005091850060E070E0402B512B622B732BC7
:10112000409323015093240160932501709326017D
:10113000B09B1AC00196092E000CAA0BBB0BBC0178
:10114000552744278091840090918500A0E0B0E06D
:10115000842B952BA62BB72B8093230190932401EE
:10116000A0932501B0932601E091D301F091D40121
:10117000309739F068E070E080913B0190913C013C
:1011800009950E94BB04FF91EF91BF91AF919F9190
:101190008F917F916F915F914F913F912F911F910F
:1011A0000F910F900FBE0F901F9018951F920F92E6
:1011B0000FB60F9211240F931F932F933F934F93CA
:1011C0005F936F937F938F939F93AF93BF93EF93AF
:1011D000FF938091210190912201AC01092E000C16
:1011E000660B770B9A0111270027409184005091DC
:1011F000850060E070E0402B512B622B732B4093F5
:101200002301509324016093250170932601B09B24
:101210001AC00196092E000CAA0BBB0BBC01552766
:1012200044278091840090918500A0E0B0E0842B59
:10123000952BA62BB72B8093230190932401A09389
:101240002501B0932601E091D501F091D6013097A8
:1012500039F069E070E080913D0190913E0109957F
:101260000E94BB04FF91EF91BF91AF919F918F912D
:101270007F916F915F914F913F912F911F910F91AE
:101280000F900FBE0F901F9018951F920F920FB6E0
:101290000F9211240F931F932F933F934F935F93BC
:1012A0006F937F938F939F93AF93BF93EF93FF932E
:1012B0008091210190912201AC01092E000C660B56
:1012C000770B9A01112700274091840050918500E7
:1012D00060E070E0402B512B622B732B4093230175
:1012E000509324016093250170932601B09B1AC08E
:1012F0000196092E000CAA0BBB0BBC0155274427F5
:101300008091840090918500A0E0B0E0842B952B23
:10131000A62BB72B8093230190932401A093250142
:10132000B0932601E091D701F091D801309739F0C0
:101330006AE070E080913F019091400109950E9420
:10134000BB04FF91EF91BF91AF919F918F917F91DE
:101350006F915F914F913F912F911F910F910F903E
:101360000FBE0F901F9018951F920F920FB60F92FD
:1013700011240F931F932F933F934F935F936F937A
:101380007F938F939F93AF93BF93EF93FF9380913E
:10139000210190912201AC01092E000C660B770B04
:1013A0009A0111270027409184005091850060E048
:1013B00070E0402B512B622B732B409323015093F1
:1013C00024016093250170932601B09B1AC00196F9
:1013D000092E000CAA0BBB0BBC015527442780919A
:1013E000840090918500A0E0B0E0842B952BA62B83
:1013F000B72B8093230190932401A0932501B093F0
:101400002601E091D901F091DA01309739F06BE0D3
:1014100070E0809141019091420109950E94BB04C6
:10142000FF91EF91BF91AF919F918F917F916F91BC
:101430005F914F913F912F911F910F910F900FBE90
:101440000F901F9018951F920F920FB60F921124B4
:101450000F931F932F933F934F935F936F937F93BC
:101460008F939F93AF93BF93EF93FF93809121014D
:1014700090912201AC01092E000C660B770B9A01AA
:1014800011270027409184005091850060E070E0B2
:10149000402B512B622B732B40932301509324013B
:1014A0006093250170932601B09B1AC00196092E06
:1014B000000CAA0BBB0BBC0155274427809184006C
:1014C00090918500A0E0B0E0842B952BA62BB72B44
:1014D0008093230190932401A0932501B0932601CA
:1014E000E091DB01F091DC01309739F06CE070E0C5
:1014F000809143019091440109950E94BB04FF91A2
:10150000EF91BF91AF919F918F917F916F915F917B
:101510004F913F912F911F910F910F900FBE0F9000
:101520001F9018951F920F920FB60F9211240F93D0
:101530001F932F933F934F935F936F937F938F935B
:101540009F93AF93BF93EF93FF938091210190916D
:101550002201AC01092E000C660B770B9A011127B2
:101560000027409184005091850060E070E0402B9E
:10157000512B622B732B40932301509324016093D2
:10158000250170932601B09B1AC00196092E000C0C
:10159000AA0BBB0BBC015527442780918400909176
:1015A0008500A0E0B0E0842B952BA62BB72B809371
:1015B000230190932401A0932501B0932601E0918B
:1015C000DD01F091DE01309739F06DE070E080913F
:1015D00045019091460109950E94BB04FF91EF914E
:1015E000BF91AF919F918F917F916F915F914F913B
:1015F0003F912F911F910F910F900FBE0F901F9051
:1016000018951F920F920FB60F9211240F931F93EC
:101610002F933F934F935F936F937F938F939F93FA
:10162000AF93BF93EF93FF9380912101909122019B
:10163000AC01092E000C660B770B9A0111270027CD
:10164000409184005091850060E070E0402B512B68
:10165000622B732B40932301509324016093250147
:1016600070932601B09B1AC00196092E000CAA0B9C
:10167000BB0BBC01552744278091840090918500C5
:10168000A0E0B0E0842B952BA62BB72B80932301F1
:1016900090932401A0932501B0932601E091DF01EE
:1016A000F091E001309739F06EE070E080914701F1
:1016B0009091480109950E94BB04FF91EF91BF9161
:1016C000AF919F918F917F916F915F914F913F91DA
:1016D0002F911F910F910F900FBE0F901F90189593
:1016E0001F920F920FB60F9211240F931F932F93F7
:1016F0003F934F935F936F937F938F939F93AF939A
:10170000BF93EF93FF938091210190912201AC014F
:10171000092E000C660B770B9A01112700274091C8
:1017200084005091850060E070E0402B512B622BCB
:10173000732B4093230150932401609325017093F0
:101740002601B09B1AC00196092E000CAA0BBB0BF8
:10175000BC01552744278091840090918500A0E02A
:10176000B0E0842B952BA62BB72B8093230190936D
:101770002401A0932501B0932601E091E101F091AD
:10178000E201309739F06FE070E08091490190916B
:101790004A0109950E94BB04FF91EF91BF91AF915F
:1017A0009F918F917F916F915F914F913F912F9179
:1017B0001F910F910F900FBE0F901F9018951F92C1
:1017C0000F920FB60F9211240F931F932F933F93F5
:1017D0004F935F936F937F938F939F93AF93BF9339
:1017E000EF93FF938091210190912201AC01092E8A
:1017F000000C660B770B9A0111270027409184009B
:101800005091850060E070E0402B512B622B732BD0
:101810004093230150932401609325017093260186
:10182000B09B1AC00196092E000CAA0BBB0BBC0181
:10183000552744278091840090918500A0E0B0E076
:10184000842B952BA62BB72B8093230190932401F7
:10185000A0932501B0932601E091E301F091E4010A
:10186000309739F060E170E080914B0190914C012C
:1018700009950E94BB04FF91EF91BF91AF919F9199
:101880008F917F916F915F914F913F912F911F9118
:101890000F910F900FBE0F901F9018951F920F92EF
:1018A0000FB60F9211240F931F932F933F934F93D3
:1018B0005F936F937F938F939F93AF93BF93EF93B8
:1018C000FF938091210190912201AC01092E000C1F
:1018D000660B770B9A0111270027409184005091E5
:1018E000850060E070E0402B512B622B732B4093FE
:1018F0002301509324016093250170932601B09B2E
:101900001AC00196092E000CAA0BBB0BBC0155276F
:1019100044278091840090918500A0E0B0E0842B62
:10192000952BA62BB72B8093230190932401A09392
:101930002501B0932601E091E501F091E601309791
:1019400039F061E170E080914D0190914E0109956F
:101950000E94BB04FF91EF91BF91AF919F918F9136
:101960007F916F915F914F913F912F911F910F91B7
:101970000F900FBE0F901F9018950E94BB04789493
:1019800081E083BF8895FCCF1F920F920FB60F9214
:1019900011242F933F934F935F936F937F938F9374
:1019A0009F93EF93FF9380912101909122010196E3
:1019B0009093220180932101E0912701F091280169
:1019C000309701F1428153816481758186179707B1
:1019D000C9F4CA012091840030918500421B530B49
:1019E0004130510529F48091840090918500019641
:1019F0009093890080938800EFE6F0E08081826018
:101A0000808305C0EFE6F0E080818D7F8083FF91C9
:101A1000EF919F918F917F916F915F914F913F9146
:101A20002F910F900FBE0F901F9018951F920F923D
:101A30000FB60F921124CF92DF92EF92FF922F9365
:101A40003F934F935F936F937F938F939F93AF9346
:101A5000BF93EF93FF9380912101909122016C013C
:101A6000092E000CEE08FF087601DD24CC244091FD
:101A700084005091850060E070E0C42AD52AE62AEF
:101A8000F72AB09B1EC06C012FEFC21AD20A0D2C90
:101A9000000CEE08FF08D60199278827C090840023
:101AA000D0908500E12CF12CC82AD92AEA2AFB2AF9
:101AB00008C087E291E00E94860469E271E00E941A
:101AC0002404E0912701F0912801309769F0828188
:101AD0009381A481B5818C199D09AE09BF0918169F
:101AE00019061A061B062CF7309721F18281938183
:101AF000A481B58120912101309122012A173B0751
:101B0000C9F49C014091840050918500841B950B81
:101B1000019731F420918400309185002F5F3F4F71
:101B20003093890020938800EFE6F0E080818260A6
:101B3000808305C0EFE6F0E080818D7F80830E9486
:101B4000BB04FF91EF91BF91AF919F918F917F91D6
:101B50006F915F914F913F912F91FF90EF90DF90A8
:101B6000CF900F900FBE0F901F9018953F924F92FD
:101B70005F926F927F928F929F92AF92BF92CF921D
:101B8000DF92EF92FF920F931F93CF93DF932B017E
:101B90003C0149015A018FB78078382EF89486E0CD
:101BA00091E00E948604EC011B870A87FD86EC8683
:101BB000DF86CE86332061F0E0910001F0910101D3
:101BC0000280F381E02D82819381A481B58108C0D8
:101BD0008091230190912401A0912501B0912601CB
:101BE000480E591E6A1E7B1E4A825B826C827D8271
:101BF000181419041A041B0444F00F2E88248A9424
:101C0000982CA82CFFE7BF2EF02D840C951CA61C49
:101C1000B71C8E829F82A886B986209121013091BF
:101C20002201C901032E000CAA0BBB0BDC01992772
:101C30008827409184005091850060E070E0842BFB
:101C4000952BA62BB72BB09B13C0C9010196092E6B
:101C5000000CAA0BBB0BDC0199278827409184005C
:101C60005091850060E070E0842B952BA62BB72B5C
:101C7000481A590A6A0A7B0A141415041604170430
:101C8000ACF567E271E0CE010E945504E0912701B6
:101C9000F0912801309721F182819381A481B5814F
:101CA00020912101309122012A173B07C9F49C01A0
:101CB0004091840050918500841B950B019731F46D
:101CC00020918400309185002F5F3F4F3093890031
:101CD00020938800EFE6F0E080818260808339C045
:101CE000EFE6F0E080818D7F808333C069E271E0B0
:101CF000CE010E942404332061F18091040190916F
:101D00000501892B31F1E0912901F0912A018681A9
:101D10009781A085B185E0910201F09103010280D5
:101D2000F381E02D4681578160857185841B950B79
:101D3000A60BB70B72F484E091E00E94B10462E05C
:101D400071E00E94A70480910201909103010E941A
:101D50000404332009F07894CE01DF91CF911F91D4
:101D60000F91FF90EF90DF90CF90BF90AF909F903A
:101D70008F907F906F905F904F903F900895CF929B
:101D8000DF92EF92FF920F931F93CF93DF93EC01BB
:101D90007B016A011FB71078F894A881B981109768
:101DA00019F435C0A081B1811496ED91FC9115977D
:101DB0003097C1F72091000130910101A217B307BC
:101DC00011F0111107C0112309F44AC078948FEF64
:101DD0009FEF4EC08A819B81009719F0FC0115820C
:101DE00014823B832A83F901D583C483CD010E94E9
:101DF0000404E0910001F091010182819381892B1B
:101E000031F4112381F1789480E090E031C0809129
:101E100000019091010199838883112329F08A811F
:101E20009B81019709F07894B601CE01F7010995DD
:101E3000F82E092F8FB7F894198218828A819B8116
:101E40008230910538F01B821A82FC0115821482BF
:101E50000E940404112351F078948F2D902F08C014
:101E60008FEF9FEF05C080E090E002C08F2D902F94
:101E7000DF91CF911F910F91FF90EF90DF90CF9066
:101E80000895009100011091010189E291E00E9402
:101E90008604EC01F8019383828378946C857D85B8
:101EA0004E855F858A859B850E94BF0E8FB7F8940B
:101EB00066E071E0CE010E949D04E0910201F09184
:101EC00003010190F081E02DC281D381E0912901CD
:101ED000F0912A013097A1F0209799F2868197819D
:101EE000A085B1854E815F8168857985841B950BBE
:101EF000A60BB70B181619061A061B060CF0C1CF55
:101F000082E091E00E94B10464E071E00E94A704C5
:101F1000A0910201B091030102C0A081B181149689
:101F2000ED91FC9115973097C1F7CD010E94040403
:101F3000A8CFFC014231B8F49FB79078F89450E0F4
:101F4000440F551FDA01A55DBE4FED93FC93DA01F6
:101F5000AD53BE4F6D937C9321E030E033832283F9
:101F6000992309F0789408958C017B016A018FB759
:101F7000F8940E9465037894E114F10441F020E0A4
:101F800030E0A90160E070E0CB010E94B60D8FB790
:101F9000F8940E94BD0CCF92DF92EF92FF920F93C4
:101FA0001F93CF93DF93EC018A859B850597B4F54A
:101FB0008E859F85863091058CF52C813D81213061
:101FC0003105A1F428853985121613067CF49F93F8
:101FD0008F930E94B7118E859F8501969F878E876C
:101FE00084E090E00E9469110F900F908C819D8198
:101FF000892BA1F48E819F81181619067CF48E8599
:102000009F8501969F878E879F938F930E94B7111C
:1020100081E090E00E9469110F900F908E859F855E
:1020200005977CF48C819D818130910521F4288570
:102030003985232B31F0892BC1F48E819F81892B27
:10204000A1F48A859B85892B81F48C819D818130C7
:10205000910519F41D821C8206C0892B21F481E0B0
:1020600090E09D838C831F861E868A859B85892BA5
:10207000B1F48C819D81019731F488859985892BF4
:1020800011F41D821C828C819D81892B41F48E81EB
:102090009F81892B21F481E090E09D838C83C12C6A
:1020A000D12C0F2EFBECEF2EFFE0FF2EF02D8E013A
:1020B00020E030E0A90162E17AE780E090E00E9450
:1020C000B60DDF91CF911F910F91FF90EF90DF90B0
:1020D000CF900895CF93DF93EC0160E070E08885A6
:1020E0000E94E50262E070E08A850E94E50264E0F9
:1020F00070E08E810E94E502DF91CF910895CF922A
:10210000DF92EF92FF920F931F93FC01268137819C
:102110002F5F3F4F37832683C12CD12C0F2EFAE639
:10212000EF2EF0E1FF2EF02D8C0120E030E0A90130
:1021300060E070E0CB010E94B60D1F910F91FF90FF
:10214000EF90DF90CF900895CF92DF92EF92FF92C1
:102150000F931F93FC01208531852F5F3F4F3187FF
:102160002087C12CD12C0F2EFAE6EF2EF0E1FF2EA6
:10217000F02D8C0120E030E0A90160E070E0CB019F
:102180000E94B60D1F910F91FF90EF90DF90CF90BE
:102190000895CF92DF92EF92FF920F931F93FC016D
:1021A00080859185019791878087828593850196A7
:1021B00093878287C12CD12C0F2EFAE6EF2EF0E107
:1021C000FF2EF02D8F0120E030E0A90160E070E0EB
:1021D000CB010E94B60D1F910F91FF90EF90DF9001
:1021E000CF900895CF92DF92EF92FF920F931F93BB
:1021F000FC018681978101979783868382859385E9
:10220000019693878287C12CD12C0F2EFAE6EF2EF0
:10221000F0E1FF2EF02D8F0120E030E0A90160E019
:1022200070E0CB010E94B60D1F910F91FF90EF90CF
:10223000DF90CF900895CF92DF92EF92FF920F93AD
:102240001F93FC012285338512161306ACF48C0112
:102250002150310933872287C12CD12C0F2EFAE669
:10226000EF2EF0E1FF2EF02D20E030E0A90160E03C
:1022700070E0CB010E94B60D1F910F91FF90EF907F
:10228000DF90CF900895CF93DF93EC0160E070E092
:1022900088850E94E50262E070E08A850E94E5027E
:1022A00064E070E08E810E94E502DF91CF91089595
:1022B000CF93DF931F92CDB7DEB78091C000882304
:1022C000E4F78091C600898389810F90DF91CF91D7
:1022D00008959091C00095FFFCCF8093C6000895AB
:1022E000EE0FFF1F0590F491E02D0994DC012D9273
:1022F0003D924D925D926D927D928D929D92AD92A6
:10230000BD92CD92DD92ED92FD920D931D93CD93F2
:10231000DD93FF91EF918DB78D938EB78D938FB72E
:102320008D93ED93FD93882799270994DC01CB01C8
:1023300081309105811D2D903D904D905D906D9067
:102340007D908D909D90AD90BD90CD90DD90ED9065
:10235000FD900D911D91CD91DD91ED91FD910D902F
:10236000F894FEBF0FBEEDBFED91FD910994A0E082
:10237000B0E0EDEBF1E10C946E14AE014B5F5F4FFA
:10238000FA0161917191AF01809176049091770487
:102390000E94CD11E2E00C948A14ABE0B0E0E3EDD2
:1023A000F1E10C945E146C017B018A01FC0117823F
:1023B0001682838181FFCCC1CE0101963C01F601DA
:1023C0009381F70193FD859193FF81917F0188238C
:1023D00009F4BAC1853239F493FD859193FF819157
:1023E0007F01853229F4B60190E00E94C413E7CF43
:1023F000912C212C312CFFE1F315D8F08B3279F0A0
:1024000038F4803279F08332A1F4232D20611DC08D
:102410008D3261F0803369F4232D216016C0832D45
:102420008260382EE32DE4603E2E2AC0F32DF86042
:102430001DC037FC2DC020ED280F2A3040F08E3211
:10244000B9F436FC81C1232D2064322E19C036FE2A
:1024500006C08AE0989E200D1124922E11C0EAE059
:102460002E9E200D1124222EF32DF0623F2E08C047
:102470008C3621F4832D8068382E02C0883641F4D2
:10248000F70193FD859193FF81917F018111B3CF76
:10249000982F9F7D9554933028F40C5F1F4F9FE336
:1024A00099830DC0833631F0833771F0833509F09D
:1024B00059C021C0F801808189830E5F1F4F882495
:1024C0008394912C530113C02801F2E04F0E511C4C
:1024D000F801A080B18036FE03C0692D70E002C013
:1024E0006FEF7FEFC5010E94B9134C018201F32DFC
:1024F000FF773F2E16C0280122E0420E511CF80142
:10250000A080B18036FE03C0692D70E002C06FEF7D
:102510007FEFC5010E94AE134C01F32DF0683F2EF2
:10252000820133FC1BC0822D90E088169906B0F41E
:10253000B60180E290E00E94C4132A94F4CFF50122
:1025400037FC859137FE81915F01B60190E00E94D2
:10255000C41321102A9421E0821A91088114910455
:1025600071F7E8C0843611F0893641F5F80137FE7D
:1025700007C060817181828193810C5F1F4F08C009
:1025800060817181072E000C880B990B0E5F1F4F25
:10259000F32DFF763F2E97FF09C09095809570959B
:1025A00061957F4F8F4F9F4FF0683F2E2AE030E0BC
:1025B000A3010E940014882E861845C0853731F487
:1025C000232D2F7EB22E2AE030E025C0932D997F57
:1025D000B92E8F36C1F018F4883579F0B5C0803740
:1025E00019F0883721F0B0C0E92FE061BE2EB4FEAB
:1025F0000DC0FB2DF460BF2E09C034FE0AC0292F88
:102600002660B22E06C028E030E005C020E130E0B0
:1026100002C020E132E0F801B7FE07C0608171819D
:10262000828193810C5F1F4F06C06081718180E0C1
:1026300090E00E5F1F4FA3010E940014882E8618A1
:10264000FB2DFF773F2E36FE0DC0232D2E7FA22EB1
:10265000891458F434FE0BC032FC09C0832D8E7EE1
:10266000A82E05C0B82CA32C03C0B82C01C0B92CCF
:10267000A4FE0FC0FE01E80DF11D8081803321F41E
:102680009A2D997EA92E09C0A2FE06C0B394B394D8
:1026900004C08A2D867809F0B394A3FC11C0A0FE73
:1026A00006C0B21488F4280C922C9B180EC0B214E9
:1026B00060F4B60180E290E00E94C413B394F7CFB7
:1026C000B21418F42B1802C0982C212CA4FE10C0B0
:1026D000B60180E390E00E94C413A2FE17C0A1FCE3
:1026E00003C088E790E002C088E590E0B6010CC026
:1026F0008A2D867859F0A1FE02C08BE201C080E2EB
:10270000A7FC8DE2B60190E00E94C413891438F44E
:10271000B60180E390E00E94C4139A94F7CF8A94A4
:10272000F301E80DF11D8081B60190E00E94C41311
:102730008110F5CF222009F442CEB60180E290E06C
:102740000E94C4132A94F6CFF6018681978102C0B5
:102750008FEF9FEF2B96E2E10C947A14FC01059029
:10276000615070400110D8F7809590958E0F9F1F93
:102770000895FC016150704001900110D8F78095D8
:1027800090958E0F9F1F08950F931F93CF93DF9304
:10279000FB01238121FD03C08FEF9FEF2CC022FF9F
:1027A00016C046815781248135814217530744F46E
:1027B000A081B1819D012F5F3F4F318320838C9396
:1027C000268137812F5F3F4F3783268314C08B01CB
:1027D000EC01FB010084F185E02D0995892BE1F6E0
:1027E000D80116968D919C911797019617969C93F8
:1027F0008E931697CE01DF91CF911F910F9108957F
:10280000FA01AA27283051F1203181F1E8946F9321
:102810006E7F6E5F7F4F8F4F9F4FAF4FB1E03ED0C7
:10282000B4E03CD0670F781F891F9A1FA11D680F65
:10283000791F8A1F911DA11D6A0F711D811D911D98
:10284000A11D20D009F468943F912AE0269F11240D
:102850003019305D3193DEF6CF010895462F477071
:10286000405D4193B3E00FD0C9F7F6CF462F4F70CC
:10287000405D4A3318F0495D31FD4052419302D02A
:10288000A9F7EACFB4E0A6959795879577956795D0
:10289000BA95C9F700976105710508959B01AC01D0
:1028A0000A2E06945795479537952795BA95C9F7F7
:1028B000620F731F841F951FA01D08952F923F92D2
:1028C0004F925F926F927F928F929F92AF92BF9240
:1028D000CF92DF92EF92FF920F931F93CF93DF93EC
:1028E000CDB7DEB7CA1BDB0B0FB6F894DEBF0FBE49
:1028F000CDBF09942A88398848885F846E847D8496
:102900008C849B84AA84B984C884DF80EE80FD8097
:102910000C811B81AA81B981CE0FD11D0FB6F8940D
:0E292000DEBF0FBECDBFED010895F894FFCFCE
:10292E00E701E7014F01040251158020111E111B12
:0C293E00500B411B411F1101511F510B98
:00000001FF
