S00C00006C6162352E73726563B4
S11300000C9437000C9418030C9487030C94F60397
S11300100C9465040C94D4040C9454000C94380B84
S11300200C9454000C94E60A0C9443050C94B20509
S11300300C9421060C9490060C94FF060C946E0705
S11300400C94DD070C944C080C94BB080C942A09FE
S11300500C9499090C94080A0C94770AB5009D0035
S1130060A000A300A600A900AC00AF00B2001124B8
S11300701FBECFEFD4E0DEBFCDBF11E0A0E0B1E002
S1130080E2E4F8E102C005900D92AA31B107D9F774
S113009024E0AAE1B1E001C01D92AD36B207E1F758
S11300A00E9450020C941F0C0C940000E1E6F0E056
S11300B080E88083108287EB8093E5008FE0809353
S11300C0E70087E08093E60090EC9093E40085B12C
S11300D0806D85B98EB18C608EB98FE284B980E56C
S11300E08DB98CE080936B0080ED80936C009DBB98
S11300F00895CF93DF93CDB7DEB764970FB6F89426
S1130100DEBF0FBECDBF94E1E6E0F1E0DE01119663
S113011001900D929A95E1F76630710508F09DC142
S113012090E0FC01F197E930F10520F4E25DFF4F26
S11301300C94D80B80E090E01AC082E090E017C0E5
S113014083E090E014C084E090E011C085E090E08A
S11301500EC086E090E00BC087E090E008C088E025
S113016090E005C089E090E002C081E090E0623058
S1130170710509F489C044F46115710581F0613099
S1130180710509F444C069C16430710509F4F1C012
S11301900CF4B2C06530710509F423C15EC1ACEE44
S11301A0B0E02C91880F991FE1E0F0E0EC0FFD1F07
S11301B0E80FF91F8081922F907F8F70892B8C9389
S11301C0A1EFB0E02C9180819181807F9927959552
S11301D08795959587959595879595958795922F6C
S11301E0907F892B8C93A6EFB0E08C912081318194
S11301F022273F70807F832B8C93ABEFB0E08C91F0
S1130200918192959F70807F892B8C9326C1ACEE4F
S1130210B0E02C91880F991FE1E0F0E0EC0FFD1F96
S1130220E80FF91F8081918182959295907F98279C
S1130230807F9827922F9F70892B8C93A1EFB0E039
S11302409C9180819F70807F892B8C93A6EFB0E076
S11302502C918081918188279F709595879595959C
S113026087959595879595958795922F9F70892B5E
S11302708C93ABEFB0E08C91208131812227307FC9
S11302808F70832B8C93E9C0ADEEB0E02C91880F76
S1130290991FE1E0F0E0EC0FFD1FE80FF91F8081EA
S11302A0922F907F8F70892B8C93A2EFB0E02C91CA
S11302B080819181807F99279595879595958795DC
S11302C09595879595958795922F907F892B8C93FB
S11302D0A7EFB0E08C912081318122273F70807F8D
S11302E0832B8C93ACEFB0E08C91918192959F70AD
S11302F0807F892B8C93B1C0ADEEB0E02C91880F38
S1130300991FE1E0F0E0EC0FFD1FE80FF91F808179
S1130310918182959295907F9827807F9827922F3C
S11303209F70892B8C93A2EFB0E09C9180819F7089
S1130330807F892B8C93A7EFB0E02C9180819181F1
S113034088279F7095958795959587959595879519
S113035095958795922F9F70892B8C93ACEFB0E085
S11303608C91208131812227307F8F70832B8C9355
S113037074C0AEEEB0E02C91880F991FE1E0F0E07C
S1130380EC0FFD1FE80FF91F8081922F907F8F7073
S1130390892B8C93A3EFB0E02C9180819181807F95
S11303A0992795958795959587959595879595958D
S11303B08795922F907F892B8C93A8EFB0E08C9136
S11303C02081318122273F70807F832B8C93ADEF76
S11303D0B0E08C91918192959F70807F892B8C9352
S11303E03CC0AEEEB0E02C91880F991FE1E0F0E044
S11303F0EC0FFD1FE80FF91F808191818295929582
S1130400907F9827807F9827922F9F70892B8C93B9
S1130410A3EFB0E09C9180819F70807F892B8C93A7
S1130420A8EFB0E02C918081918188279F709595E9
S11304308795959587959595879595958795922F09
S11304409F70892B8C93ADEFB0E08C91208131812A
S11304502227307F8F70832B8C9364960FB6F89489
S1130460DEBF0FBECDBFDF91CF910895CF93DF9351
S11304701F92CDB7DEB78091C0008823E4F7E6EC85
S1130480F0E0808189838081813031F461E070E023
S113049081E390E00E9479000F90DF91CF9108955D
S11304A01092C50084E38093C40088E98093C1005E
S11304B086E08093C2000E9456000E94360265E0E6
S11304C070E081E390E00E94790080E090E008957C
S11304D0CF93DF9300D0CDB7DEB79A838983809121
S11304E000019091010106960E94DE0B892B59F4BC
S11304F089819A81909301018093000161E070E009
S113050006960E94FE0B0F900F90DF91CF910895F5
S11305100F931F93CF93DF93DC01CB01EB01E881B1
S1130520F981C0E0D0E004C0EF010190F081E02D3A
S1130530309779F0068117812085318516964D9183
S11305405D916D917C91199740175107620773076C
S11305505CF71196FC93EE93209721F4FC01B18390
S1130560A08302C0B983A883DF91CF911F910F911B
S11305700895DC01ED91FC911197309759F48FEFB8
S11305808093EC008093ED008093EE0081E083BFC4
S11305908895FCCF208131812D933C93CF01089520
S11305A0FB0120813181FC0131832083FB01918394
S11305B080830895DC01ED91FC91119720813181B4
S11305C02D933C93CF010895CF93DF93E0910201E3
S11305D0F0910301C281D381E0912201F0912301C2
S11305E0309719F18091040190910501892BE9F06C
S11305F0209769F086819781A085B1854E815F81BE
S113060068857985841B950BA60BB70B72F484E07F
S113061091E00E94DA0262E071E00E94D0028091CF
S11306200201909103010E946802DF91CF91089525
S11306301F920F920FB60F9211240F931F932F93B3
S11306403F934F935F936F937F938F939F93AF9356
S1130650BF93EF93FF9380911A0190911B01AC011A
S1130660092E000C660B770B9A0111270027409185
S113067084005091850060E070E0402B512B622B88
S1130680732B40931C0150931D0160931E017093C2
S11306901F01B09B1AC00196092E000CAA0BBB0BBC
S11306A0BC01552744278091840090918500A0E0E7
S11306B0B0E0842B952BA62BB72B80931C01909331
S11306C01D01A0931E01B0931F01E091BC01F091A4
S11306D0BD01309739F060E070E080912401909181
S11306E0250109950E94E402FF91EF91BF91AF911A
S11306F09F918F917F916F915F914F913F912F9136
S11307001F910F910F900FBE0F901F9018951F927D
S11307100F920FB60F9211240F931F932F933F93B1
S11307204F935F936F937F938F939F93AF93BF93F5
S1130730EF93FF9380911A0190911B01AC01092E54
S1130740000C660B770B9A01112700274091840057
S11307505091850060E070E0402B512B622B732B8D
S113076040931C0150931D0160931E0170931F015F
S1130770B09B1AC00196092E000CAA0BBB0BBC013E
S1130780552744278091840090918500A0E0B0E033
S1130790842B952BA62BB72B80931C0190931D01C2
S11307A0A0931E01B0931F01E091BE01F091BF011F
S11307B0309739F061E070E0809126019091270133
S11307C009950E94E402FF91EF91BF91AF919F912F
S11307D08F917F916F915F914F913F912F911F91D5
S11307E00F910F900FBE0F901F9018951F920F92AC
S11307F00FB60F9211240F931F932F933F934F9390
S11308005F936F937F938F939F93AF93BF93EF9374
S1130810FF9380911A0190911B01AC01092E000CE9
S1130820660B770B9A0111270027409184005091A1
S1130830850060E070E0402B512B622B732B4093BA
S11308401C0150931D0160931E0170931F01B09B06
S11308501AC00196092E000CAA0BBB0BBC0155272C
S113086044278091840090918500A0E0B0E0842B1F
S1130870952BA62BB72B80931C0190931D01A0935D
S11308801E01B0931F01E091C001F091C1013097A6
S113089039F062E070E08091280190912901099576
S11308A00E94E402FF91EF91BF91AF919F918F91CC
S11308B07F916F915F914F913F912F911F910F9174
S11308C00F900FBE0F901F9018951F920F920FB6A6
S11308D00F9211240F931F932F933F934F935F9382
S11308E06F937F938F939F93AF93BF93EF93FF93F4
S11308F080911A0190911B01AC01092E000C660B2A
S1130900770B9A01112700274091840050918500AC
S113091060E070E0402B512B622B732B40931C0141
S113092050931D0160931E0170931F01B09B1AC068
S11309300196092E000CAA0BBB0BBC0155274427BA
S11309408091840090918500A0E0B0E0842B952BE9
S1130950A62BB72B80931C0190931D01A0931E011D
S1130960B0931F01E091C201F091C301309739F0B7
S113097063E070E080912A0190912B0109950E9417
S1130980E402FF91EF91BF91AF919F918F917F917D
S11309906F915F914F913F912F911F910F910F9004
S11309A00FBE0F901F9018951F920F920FB60F92C3
S11309B011240F931F932F933F934F935F936F9340
S11309C07F938F939F93AF93BF93EF93FF93809104
S11309D01A0190911B01AC01092E000C660B770BD8
S11309E09A0111270027409184005091850060E00E
S11309F070E0402B512B622B732B40931C015093BE
S1130A001D0160931E0170931F01B09B1AC00196D3
S1130A10092E000CAA0BBB0BBC015527442780915F
S1130A20840090918500A0E0B0E0842B952BA62B48
S1130A30B72B80931C0190931D01A0931E01B093CA
S1130A401F01E091C401F091C501309739F064E0D1
S1130A5070E080912C0190912D0109950E94E4028F
S1130A60FF91EF91BF91AF919F918F917F916F9182
S1130A705F914F913F912F911F910F910F900FBE56
S1130A800F901F9018951F920F920FB60F9211247A
S1130A900F931F932F933F934F935F936F937F9382
S1130AA08F939F93AF93BF93EF93FF9380911A011A
S1130AB090911B01AC01092E000C660B770B9A0177
S1130AC011270027409184005091850060E070E078
S1130AD0402B512B622B732B40931C0150931D010F
S1130AE060931E0170931F01B09B1AC00196092EDA
S1130AF0000CAA0BBB0BBC01552744278091840032
S1130B0090918500A0E0B0E0842B952BA62BB72B09
S1130B1080931C0190931D01A0931E01B0931F01AB
S1130B20E091C601F091C701309739F065E070E0BB
S1130B3080912E0190912F0109950E94E402FF916A
S1130B40EF91BF91AF919F918F917F916F915F9141
S1130B504F913F912F911F910F910F900FBE0F90C6
S1130B601F9018951F920F920FB60F9211240F9396
S1130B701F932F933F934F935F936F937F938F9321
S1130B809F93AF93BF93EF93FF9380911A0190913A
S1130B901B01AC01092E000C660B770B9A0111277F
S1130BA00027409184005091850060E070E0402B64
S1130BB0512B622B732B40931C0150931D016093A6
S1130BC01E0170931F01B09B1AC00196092E000CE0
S1130BD0AA0BBB0BBC01552744278091840090913C
S1130BE08500A0E0B0E0842B952BA62BB72B809337
S1130BF01C0190931D01A0931E01B0931F01E0916D
S1130C00C801F091C901309739F066E070E0809135
S1130C1030019091310109950E94E402FF91EF9116
S1130C20BF91AF919F918F917F916F915F914F9100
S1130C303F912F911F910F910F900FBE0F901F9016
S1130C4018951F920F920FB60F9211240F931F93B2
S1130C502F933F934F935F936F937F938F939F93C0
S1130C60AF93BF93EF93FF9380911A0190911B016F
S1130C70AC01092E000C660B770B9A011127002793
S1130C80409184005091850060E070E0402B512B2E
S1130C90622B732B40931C0150931D0160931E0122
S1130CA070931F01B09B1AC00196092E000CAA0B69
S1130CB0BB0BBC015527442780918400909185008B
S1130CC0A0E0B0E0842B952BA62BB72B80931C01BE
S1130CD090931D01A0931E01B0931F01E091CA01DE
S1130CE0F091CB01309739F067E070E080913201E8
S1130CF09091330109950E94E402FF91EF91BF9115
S1130D00AF919F918F917F916F915F914F913F919F
S1130D102F911F910F910F900FBE0F901F90189558
S1130D201F920F920FB60F9211240F931F932F93BC
S1130D303F934F935F936F937F938F939F93AF935F
S1130D40BF93EF93FF9380911A0190911B01AC0123
S1130D50092E000C660B770B9A011127002740918E
S1130D6084005091850060E070E0402B512B622B91
S1130D70732B40931C0150931D0160931E017093CB
S1130D801F01B09B1AC00196092E000CAA0BBB0BC5
S1130D90BC01552744278091840090918500A0E0F0
S1130DA0B0E0842B952BA62BB72B80931C0190933A
S1130DB01D01A0931E01B0931F01E091CC01F0919D
S1130DC0CD01309739F068E070E080913401909162
S1130DD0350109950E94E402FF91EF91BF91AF9113
S1130DE09F918F917F916F915F914F913F912F913F
S1130DF01F910F910F900FBE0F901F9018951F9287
S1130E000F920FB60F9211240F931F932F933F93BA
S1130E104F935F936F937F938F939F93AF93BF93FE
S1130E20EF93FF9380911A0190911B01AC01092E5D
S1130E30000C660B770B9A01112700274091840060
S1130E405091850060E070E0402B512B622B732B96
S1130E5040931C0150931D0160931E0170931F0168
S1130E60B09B1AC00196092E000CAA0BBB0BBC0147
S1130E70552744278091840090918500A0E0B0E03C
S1130E80842B952BA62BB72B80931C0190931D01CB
S1130E90A0931E01B0931F01E091CE01F091CF0108
S1130EA0309739F069E070E0809136019091370114
S1130EB009950E94E402FF91EF91BF91AF919F9138
S1130EC08F917F916F915F914F913F912F911F91DE
S1130ED00F910F900FBE0F901F9018951F920F92B5
S1130EE00FB60F9211240F931F932F933F934F9399
S1130EF05F936F937F938F939F93AF93BF93EF937E
S1130F00FF9380911A0190911B01AC01092E000CF2
S1130F10660B770B9A0111270027409184005091AA
S1130F20850060E070E0402B512B622B732B4093C3
S1130F301C0150931D0160931E0170931F01B09B0F
S1130F401AC00196092E000CAA0BBB0BBC01552735
S1130F5044278091840090918500A0E0B0E0842B28
S1130F60952BA62BB72B80931C0190931D01A09366
S1130F701E01B0931F01E091D001F091D10130978F
S1130F8039F06AE070E08091380190913901099557
S1130F900E94E402FF91EF91BF91AF919F918F91D5
S1130FA07F916F915F914F913F912F911F910F917D
S1130FB00F900FBE0F901F9018951F920F920FB6AF
S1130FC00F9211240F931F932F933F934F935F938B
S1130FD06F937F938F939F93AF93BF93EF93FF93FD
S1130FE080911A0190911B01AC01092E000C660B33
S1130FF0770B9A01112700274091840050918500B6
S113100060E070E0402B512B622B732B40931C014A
S113101050931D0160931E0170931F01B09B1AC071
S11310200196092E000CAA0BBB0BBC0155274427C3
S11310308091840090918500A0E0B0E0842B952BF2
S1131040A62BB72B80931C0190931D01A0931E0126
S1131050B0931F01E091D201F091D301309739F0A0
S11310606BE070E080913A0190913B0109950E94F8
S1131070E402FF91EF91BF91AF919F918F917F9186
S11310806F915F914F913F912F911F910F910F900D
S11310900FBE0F901F9018951F920F920FB60F92CC
S11310A011240F931F932F933F934F935F936F9349
S11310B07F938F939F93AF93BF93EF93FF9380910D
S11310C01A0190911B01AC01092E000C660B770BE1
S11310D09A0111270027409184005091850060E017
S11310E070E0402B512B622B732B40931C015093C7
S11310F01D0160931E0170931F01B09B1AC00196DD
S1131100092E000CAA0BBB0BBC0155274427809168
S1131110840090918500A0E0B0E0842B952BA62B51
S1131120B72B80931C0190931D01A0931E01B093D3
S11311301F01E091D401F091D501309739F06CE0B2
S113114070E080913C0190913D0109950E94E40278
S1131150FF91EF91BF91AF919F918F917F916F918B
S11311605F914F913F912F911F910F910F900FBE5F
S11311700F901F9018951F920F920FB60F92112483
S11311800F931F932F933F934F935F936F937F938B
S11311908F939F93AF93BF93EF93FF9380911A0123
S11311A090911B01AC01092E000C660B770B9A0180
S11311B011270027409184005091850060E070E081
S11311C0402B512B622B732B40931C0150931D0118
S11311D060931E0170931F01B09B1AC00196092EE3
S11311E0000CAA0BBB0BBC0155274427809184003B
S11311F090918500A0E0B0E0842B952BA62BB72B13
S113120080931C0190931D01A0931E01B0931F01B4
S1131210E091D601F091D701309739F06DE070E09C
S113122080913E0190913F0109950E94E402FF9153
S1131230EF91BF91AF919F918F917F916F915F914A
S11312404F913F912F911F910F910F900FBE0F90CF
S11312501F9018951F920F920FB60F9211240F939F
S11312601F932F933F934F935F936F937F938F932A
S11312709F93AF93BF93EF93FF9380911A01909143
S11312801B01AC01092E000C660B770B9A01112788
S11312900027409184005091850060E070E0402B6D
S11312A0512B622B732B40931C0150931D016093AF
S11312B01E0170931F01B09B1AC00196092E000CE9
S11312C0AA0BBB0BBC015527442780918400909145
S11312D08500A0E0B0E0842B952BA62BB72B809340
S11312E01C0190931D01A0931E01B0931F01E09176
S11312F0D801F091D901309739F06EE070E0809117
S113130040019091410109950E94E402FF91EF91FF
S1131310BF91AF919F918F917F916F915F914F9109
S11313203F912F911F910F910F900FBE0F901F901F
S113133018951F920F920FB60F9211240F931F93BB
S11313402F933F934F935F936F937F938F939F93C9
S1131350AF93BF93EF93FF9380911A0190911B0178
S1131360AC01092E000C660B770B9A01112700279C
S1131370409184005091850060E070E0402B512B37
S1131380622B732B40931C0150931D0160931E012B
S113139070931F01B09B1AC00196092E000CAA0B72
S11313A0BB0BBC0155274427809184009091850094
S11313B0A0E0B0E0842B952BA62BB72B80931C01C7
S11313C090931D01A0931E01B0931F01E091DA01D7
S11313D0F091DB01309739F06FE070E080914201C9
S11313E09091430109950E94E402FF91EF91BF910E
S11313F0AF919F918F917F916F915F914F913F91A9
S11314002F911F910F910F900FBE0F901F90189561
S11314101F920F920FB60F9211240F931F932F93C5
S11314203F934F935F936F937F938F939F93AF9368
S1131430BF93EF93FF9380911A0190911B01AC012C
S1131440092E000C660B770B9A0111270027409197
S113145084005091850060E070E0402B512B622B9A
S1131460732B40931C0150931D0160931E017093D4
S11314701F01B09B1AC00196092E000CAA0BBB0BCE
S1131480BC01552744278091840090918500A0E0F9
S1131490B0E0842B952BA62BB72B80931C01909343
S11314A01D01A0931E01B0931F01E091DC01F09196
S11314B0DD01309739F060E170E080914401909152
S11314C0450109950E94E402FF91EF91BF91AF910C
S11314D09F918F917F916F915F914F913F912F9148
S11314E01F910F910F900FBE0F901F9018951F9290
S11314F00F920FB60F9211240F931F932F933F93C4
S11315004F935F936F937F938F939F93AF93BF9307
S1131510EF93FF9380911A0190911B01AC01092E66
S1131520000C660B770B9A01112700274091840069
S11315305091850060E070E0402B512B622B732B9F
S113154040931C0150931D0160931E0170931F0171
S1131550B09B1AC00196092E000CAA0BBB0BBC0150
S1131560552744278091840090918500A0E0B0E045
S1131570842B952BA62BB72B80931C0190931D01D4
S1131580A0931E01B0931F01E091DE01F091DF01F1
S1131590309739F061E170E0809146019091470104
S11315A009950E94E402FF91EF91BF91AF919F9141
S11315B08F917F916F915F914F913F912F911F91E7
S11315C00F910F900FBE0F901F9018951F920F92BE
S11315D00FB60F9211242F933F934F935F936F9302
S11315E07F938F939F93EF93FF9380911A01909130
S11315F01B01019690931B0180931A01E091200135
S1131600F0912101309701F1428153816481758108
S113161086179707C9F4CA01209184003091850088
S1131620421B530B4130510529F480918400909161
S1131630850001969093890080938800EFE6F0E09E
S113164080818260808305C0EFE6F0E080818D7F39
S11316508083FF91EF919F918F917F916F915F9123
S11316604F913F912F910F900FBE0F901F9018959F
S11316701F920F920FB60F921124CF92DF92EF9226
S1131680FF922F933F934F935F936F937F938F9327
S11316909F93AF93BF93EF93FF9380911A0190911F
S11316A01B016C01092E000CEE08FF087601DD24F5
S11316B0CC24409184005091850060E070E0C42AFD
S11316C0D52AE62AF72AB09B1EC06C012FEFC21A56
S11316D0D20A0D2C000CEE08FF08D60199278827A2
S11316E0C0908400D0908500E12CF12CC82AD92A1E
S11316F0EA2AFB2A08C080E291E00E94B90262E271
S113170071E00E948802E0912001F091210130975C
S113171069F082819381A481B5818C199D09AE09F8
S1131720BF09181619061A061B062CF7309721F163
S113173082819381A481B58120911A0130911B018A
S11317402A173B07C9F49C014091840050918500FD
S1131750841B950B019731F420918400309185000E
S11317602F5F3F4F3093890020938800EFE6F0E02D
S113177080818260808305C0EFE6F0E080818D7F08
S113178080830E94E402FF91EF91BF91AF919F91FA
S11317908F917F916F915F914F913F912F91FF9026
S11317A0EF90DF90CF900F900FBE0F901F90189581
S11317B0EE0FFF1F0590F491E02D0994DC012D92AA
S11317C03D924D925D926D927D928D929D92AD92DD
S11317D0BD92CD92DD92ED92FD920D931D93CD932A
S11317E0DD93FF91EF918DB78D938EB78D938FB766
S11317F08D93ED93FD93882799270994DC01CB0100
S113180081309105811D2D903D904D905D906D909E
S11318107D908D909D90AD90BD90CD90DD90ED909C
S1131820FD900D911D91CD91DD91ED91FD910D9066
S1131830F894FEBF0FBEEDBFED91FD910994F894AD
S1051840FFCFD4
S1131842E001E001480151158020111E111B500BCB
S10D1852411B411F1101511F510BEE
S9030000FC
